:100000000C9452110C9471110C9471110C94711187
:100010000C9471110C9471110C9471110C94711158
:100020000C9471110C9471110C9471110C94711148
:100030000C9471110C9471110C9471110C94711138
:100040000C9471110C9471110C9473110C94711126
:100050000C9471110C9471110C9471110C94711118
:100060000C9471110C9471110C9471110C94711108
:100070000C9471110C9471110C9471110C947111F8
:100080000C9471110C9471110C9471110C947111E8
:100090000C947111000808141414142222223E41F9
:1000A00041410000001F21414141211F21414141A7
:1000B000211F0000001C22414101010101014141B9
:1000C000221C0000001F2141414141414141414169
:1000D000211F0000007F01010101013F0101010119
:1000E000017F0000007F01010101013F01010101C9
:1000F00001010000001C2241410101017141414107
:10010000625C0000004141414141417F4141414128
:1001100041410000001C08080808080808080808F1
:10012000081C000000202020202020202020212149
:10013000120C000000412121110909050B111121A8
:100140004141000000010101010101010101010122
:10015000017F000000414163636363555555554974
:1001600049490000004141434345454949515161D6
:1001700061410000001C2241414141414141414156
:10018000221C0000001F21414141211F01010101EA
:1001900001010000001C22414141414141414951BE
:1001A000225C0000001F21414141211F111121212A
:1001B00041410000001C22414101061820404141FC
:1001C000221C0000007F0808080808080808080822
:1001D0000808000000414141414141414141414144
:1001E000221C000000414141222222221414140842
:1001F0000808000000494949495555555522222211
:100200002222000000414122221414081414222248
:100210004141000000414122221414080808080846
:1002200008080000007F402020101008040402028B
:10023000017F0000000C12212121212121212121F7
:10024000120C000000080E08080808080808080832
:1002500008080000000C12212120101008040402DC
:10026000013F0000000C12212120100C1020212140
:10027000120C0000001010181814141212113F1064
:1002800010100000003F0101010D1321202020214A
:10029000120C0000000C122121010D13212121213B
:1002A000120C0000003F2020101010080808040461
:1002B00004040000000C12212121120C1221212122
:1002C000120C0000000C1221212121322C202121AE
:1002D000120C000000000000000000000000000000
:1002E00000000000000000000000003E00000000D0
:1002F0000000000000000000000C0C000000000CDA
:100300000C0000000000000000001E21203C222103
:10031000316E00000001010101011D2341414141F5
:10032000231D00000000000000003C42010101010B
:10033000423C00000040404040405C62414141413D
:10034000625C00000000000000001C22417F0101EF
:10035000423C00000018040404041F0404040404C4
:10036000040400000000000000005C22221C023E89
:1003700041413E000001010101011D234141414174
:1003800041410000000008080000080808080808AB
:10039000080800000000080800000808080808080D
:1003A00008080600000101010101211109050B11D6
:1003B0002141000000080808080808080808080883
:1003C00008080000000000000000354B4949494979
:1003D000494900000000000000001D234141414147
:1003E000414100000000000000001C224141414149
:1003F000221C00000000000000001D234141412399
:100400001D0101000000000000005C6241414162EA
:100410005C404000000000000000740C0404040470
:10042000040400000000000000003E4101063840C6
:10043000413E00000000040404041F0404040404FA
:10044000041800000000000000004141414141410A
:10045000625C0000000000000000414122221414F0
:1004600008080000000000000000494949555522D5
:10047000222200000000000000004122140808149D
:10048000224100000000000000004141222214141B
:10049000080403000000000000007F201008040290
:1004A000017F0000000000000000000000000000CC
:1004B000000000000000000000000000000000003C
:1004C000000000000000000000000000000000002C
:1004D000000000000000000000000000000000001C
:1004E000000000000000000000000000000000000C
:1006F0000000000000000000000000000000078073
:1007000000000003C00007C3E3C000000000000FAA
:100710000F00000000000000000000000780000043
:100720000003C00007C3E3C000000000000F0F007B
:10073000000000000000000000000780000000032F
:10074000C00007C3E00000000000000F0F00000021
:100750000000000000000000079E3C7E1EF3C3E086
:1007600007E7E3C3F01E0F79E00F0F03C1E787C06F
:10077000FC0000000000078F78FF1FF8C7F007E7B4
:10078000E3C7F87F8FFFF00F0F0FF1E78FE1FE0057
:1007900000000000078F79E79FF9CF380766E3C7AD
:1007A0003C738FFFF00FFF0E71E79E71CE000000CB
:1007B0000000078F780F9E7B8F000766E3CF30F332
:1007C000CF3CF00FFF1E79E79E03CF000000000032
:1007D000078770FF9E7907F0077EE3CF00F3CF3CD9
:1007E000F00FFF1E79E78FE3FF000000000007878E
:1007F00071F79E7803F8077EE3CF00F3CF3CF00F4C
:100800000F1E79E787F3FF00000000000783E1E790
:100810009E780078073CE3CF30F3CF3CF00F0F1EFB
:1008200079E780F3C000000000000783E1E79E78CD
:100830000E78073CE3CF3C738F3CF00F0F0E71FF37
:100840009CF1CF00000000000783E1FF9E7807F0D5
:10085000073CE3C7F87F8F3CF00F0F0FF1FF8FE1EC
:10086000FE00000000000781C0F79E7803E0071833
:10087000E3C3F01E0F3CF00F0F03C0F787C0FC006E
:100880000000000000000000000000000000000068
:100890000000000000000000000000000000000058
:1008A0000000000000000000000000000000000048
:1008B0000000000000000000000000000000000038
:1008C0000000000000000000000000000000000028
:1008D0000000000000000000000000000000000018
:1008E0000000000000000000000000000000000008
:1008F00000000000000000000000000000000000F8
:1009000000000000000000000000000000000000E7
:1009100000000000000000000000000000000000D7
:1009200000000000000000000000000000000000C7
:1009300000000000000000000000000000000000B7
:1009400000000000000000000000000000000000A7
:100950000000000000000000000000000000000097
:100960000000000000000000000000000000000087
:100970000000000000000000000000000000000077
:100980000000000000000000000000000000000067
:100990000000000000000000000000000000000057
:1009A0000000000000000000000000000000000047
:1009B0000000000000000000000000000000000037
:1009C0000000000000000000000000000000000027
:1009D0000000000000000000000000000000000017
:1009E0000000000000000000000000000000000007
:1009F00000000000000000003F000073F001C00094
:100A000000001C00000000000000000000000000CA
:100A10000000000000003F800073F801C0000000EB
:100A20001C000000000000000000000000000000AA
:100A3000000000003BBB8073B801DDDF3B001C0FF2
:100A40000F00000000000000000000000000000097
:100A500000003F1B8073F001CDBFBF801C1B9B803B
:100A60000000000000000000000000000000000086
:100A70003F1B0073F001CDB3BB801C3BBB8000006B
:100A800000000000000000000000000000003B9B90
:100A90000073B801CD8FBB801C3FBF8000000000F9
:100AA0000000000000000000000000003B8B077306
:100AB000BB81C73BBBB81C383800000000000000F9
:100AC000000000000000000000003F8E07F3FB81E3
:100AD000C73BBBB81F9F9F800000000000000000C4
:100AE00000000000000000003F0E03E3F381C71F79
:100AF000BBB81F8F0F0000000000000000000000C6
:100B0000000000000000003E0000000000000000A7
:100B100000000000000000000000000000000000D5
:100B200000000000003C0000000000000000000089
:100B300000000000000000000000000000000000B5
:100B400000000000000000000000000000000000A5
:100B50000000000000000000000000000000000095
:100B60000000000000000000000000000000000085
:100B70000000000000000000000000000000000075
:100B80000000000000000000000000000000000065
:100B90000000000000000000000000000000000055
:100BA0000000000000000000000000000000000045
:100BB0000000000000000000000000000000000035
:100BC0000000000000000000000000000000000025
:100BD0000000000000000000000000000000000015
:100BE0000000000000000000000000000000000005
:100BF00000000000000000000000000000000000F5
:100C000000000000000000000000000000000000E4
:100C100000000000000000000000000000000000D4
:100C200000000000000000000000000000000000C4
:100C300000000000000000000000000000000000B4
:100C400000000000000000000000000000000000A4
:100C5000000000000000000600000000000000008E
:100C60000000000000000000000000000000000084
:100C700000000000000C0000000000000000000068
:100C80000000000000000000000000000000000064
:100C90000000000C00000000000000000000000048
:100CA0000000000000000000000000000000000044
:100CB000000800000000000000000000000000002C
:100CC000000000000000000000000000000000180C
:100CD0000000000000000000000000000000000014
:100CE00000000000000000000000000000180000EC
:100CF00000000000000000000000000000000000F4
:100D000000000000000000000000003000000000B3
:100D100000000000000000000000000000000000D3
:100D20000000000000000000003000000000000093
:100D300000000000000000000000000000000000B3
:100D4000000FFFFFFE000060000000000000000038
:100D5000000000000000000000000000000001FF93
:100D6000FFFFFFFFE0600000000000000000000047
:100D70000000000000000000000000000FFFFFFF67
:100D8000FFFFFEE000000000000000000000000087
:100D900000000000000000000001FFFFFFFFFFFF58
:100DA000FFE0000000000000000000000000000064
:100DB000000000000000000FFFFFFFFFFFFFFFFF2C
:100DC000E000000000000000000000000000000043
:100DD00000000000007FFFFFFFFFFFFFFFFFF000AC
:100DE0000000000000000000000000000000000003
:100DF000000001FFFF035000007FFEFFF80000002D
:100E000000000000000000000000000000000000E2
:100E100007FFE003D000007BFF07FC00000000009C
:100E200000000000000000000000000000001FFEA5
:100E30000002D000003FFFC1E600000000000000FB
:100E40000000000000000000000000007FF000062D
:100E5000D000003F0FE0F380000000000000000021
:100E600000000000000000000001FFC00006F000CC
:100E7000003F03F079C00000000000000000000007
:100E800000000000000000077F000006F800003F9F
:100E9000C1F83CE00000000000000000000000007D
:100EA00000000000001DFC000004F800003FE0FC12
:100EB0001F700000000000000000000000000000A3
:100EC00000000077F0000004F800003FE07E07B863
:100ED0000000000000000000000000000000000012
:100EE00001EFE000000DF800003FE01F03D8000014
:100EF000000000000000000000000000000003BF30
:100F0000F600000DF8000037FFFB81EF0000000045
:100F10000000000000000000000000000EFFF700CD
:100F2000000DF8007FFFFFFFC0FF00000000000081
:100F300000000000000000000000FFFD170003FF9C
:100F4000FFFFFFFFFFFFFFFF0000000000000000A9
:100F5000000000000000007FFF3FF7FFFFFFFFFFE2
:100F6000FF830000C1FF80000000000000000000BF
:100F7000000000003FFFF83FFFFFFFF30000000309
:100F8000FFFFFFF3C00000000000000000000000B1
:100F9000001FFFF1C7FFFFC0000303FFFFFFFFFFBC
:100FA000FFF9C0000000000000000000000007FF83
:100FB000FFFFFFFC80000FFFFFFFFFF9001F307DE8
:100FC000C00000000000000000000000FFFFFFFF65
:100FD000803F807FFFFF000007FD0033186DE000B9
:100FE00000000000000000000007FFFFFC00006F91
:100FF000FFFF87FE000007FF00338C6CC00000007D
:10100000000000000000000EFFFC0000007FFE005A
:1010100007FE000001E30033866E80000000000040
:1010200000000000000FFFC003C001FC000007F239
:1010300000000003103F033EC0000000000000005D
:101040000000001FC7807FFC01E0000000C200001C
:101050000003FFCE01FEC000000000000000000001
:10106000001F0F01FFFF81E0000000020000000FE1
:10107000C3F8007EC0000000000000000000003E39
:101080001E07FFFFE1E0000000020000003EFFBC81
:10109000000640000000000000000000003E3C0F81
:1010A000FFFFF1E000000002000000F7FFF7001F63
:1010B000E0000000000000000000003EFFFFFFFF16
:1010C000F9E000000002000001DFFFFB8079E00092
:1010D0000000000000000000007FFFFFFBFFEDE0CC
:1010E00000000002000003FFFFFE80FFE0000000A0
:1010F00000000000000000FF007FDFFBF7E00000C1
:101100000002000003FFFFFF01C0600000000000BC
:101110000000000000DFFFFF781EF9E00000000281
:10112000000001FF81FF8181F0000000000000004D
:10113000000000FFFFFEC0077DE00000000200008D
:1011400003FE0037C303F8000000000000000000A9
:1011500000E0187F8001BFE3FFFFFFFFFFFFFFD824
:10116000001BE603D800000000000000000000FFA4
:10117000FCFB07E0DFFFFFFFFFFFFFFFFFB07E0D7F
:10118000FE039800000000000000000000DFFEF6F3
:101190001FF86FFFFFFFFFFFFFFFFFE1FF86FC036C
:1011A0009800000000000000000000FC07FC3EFC6E
:1011B0003F7FFC00000200000FC3F7C3F8001800D7
:1011C000000000000000000001C003FC7FFE37FFAC
:1011D000FFFFFFFFFFFFFFC7FFE3703FF8000000C6
:1011E000000000000000018001F8F7EF1FFFFFFF83
:1011F000FFFFFFFFFF8F7EF1F7FFF8000000000008
:101200000000000001F1E078FFFF1EFFC0000003B6
:1012100080001F8FFFF1FFFEF800000000000000BB
:10122000000000FFF071BFFD9E3BFFFFFFFFFFFED0
:10123000179BFFD9A001F80000000000000000008B
:1012400000FF9FF1FFFF8E3FFFFFFFFFFFFFFF1F2C
:10125000FFF8B007E0000000000000000000003FC1
:10126000DC71FFFF8A3FFFFFFFFFFFFFFF1FFFF85B
:10127000F07FC0000000000000000000000FF871C7
:10128000DFFB8E7FFFFFFFFFFFFFC71DFFB8FFFFE4
:10129000000000000000000000000000FFF1DFFB84
:1012A0008FFFFFFFFFFFFFFFF71DFFB89C0000004F
:1012B000000000000000000000000FD9FFFF9BE0CD
:1012C00000000000009FFD9FFFF98000000000006B
:1012D00000000000000000000018FFFF18000000E0
:1012E00000000000018FFFF18000000000000000FE
:1012F0000000000000000018F7EF180000000000D8
:101300000000018F7EF1800000000000000000005E
:1013100000000000000C7E6E3000000000000000A5
:1013200000C767E3000000000000000000000000AC
:101330000000000C3FFC300000000000000000C373
:10134000FFC30000000000000000000000000000DB
:1013500000061FF860000000000000000061FF862A
:10136000000000000000000000000000000000037A
:1013700007E0C00000000000000000303E0C00004C
:1013800000000000000000000000000000018001DB
:10139000800000000000000000180018000000009D
:1013A000000000000000000000000000000000003D
:1013B000000000000000000000000000000000002D
:1013C000000000000000000000000000000000001D
:1013D000000000000000000000000000000000000D
:1013E00000000000000000000000000000000000FD
:1013F00000000000000000000000000000000000ED
:1014000000000000000000000000000000000000DC
:1014100000000000000000000000000000000000CC
:1014200000000000000000000000000000000000BC
:1014300000000000000000000000000000000000AC
:10144000000000000000000000000000000000009C
:10145000000000000000000000000000000000008C
:10146000000000000000000000000000000000007C
:1014700000000000000003804100001170380000EF
:1014800000000000000000000000017381C00000A7
:1014900001C000000381C700001170380000000087
:1014A000000000000000000001038000000001C0F7
:1014B000000003B3FFDD8E227638706E03B0F9C7EB
:1014C0001C3B01C0E1DB8273B1DC73E3B1C381C0BB
:1014D00003FBFFDFCE227F38F8FE03F9FCC63E3E59
:1014E00003E1F1FFC273F9CC67F3F9C7C3E003B9B5
:1014F000C71DCE227739DCEE03B9DCEE77380773EF
:10150000B9DDC273B9CEE773B9CEE77003B9C71DB1
:10151000C0447739DCEE03B83CEE77380703B9DD19
:10152000C473B9CEE0F3B9CEE77003B9C71DC044A8
:101530007739DCEE03B8DC6C7F380703B9DDC473A0
:10154000B9C6C373B9CFE7F003B9C71DCE44773925
:10155000DCEE73B9DC7C7038E773B9DDC473B9C7EE
:10156000C773B9CE070003B9F7DFCE887F38F8FE1E
:1015700073B9FC383F38E3E1F1DDC873F9C387F391
:10158000B9C7E3F003B8F3DD8E887638706E73B8B0
:10159000FC381E38E1C0E1DDC873B1C383F3B9C3C1
:1015A000C1E00000001C00000000000E0000000070
:1015B00000000000000000700000000000000000BB
:1015C0000000001C0000000000FE00000000000001
:1015D0000000000001F0000000000000000000001A
:1015E000001C00000000007C000000000000000063
:1015F000000001E00000000000000000000000000A
:1016000000000000000000000000000000000000DA
:1016100000000000000000000000000000000000CA
:1016200000000000000000000000000000000000BA
:1016300000000000000000000000000000000000AA
:10164000000000000000000000000000000000009A
:10165000000000000000000000000000000000008A
:10166000000000000000000000000000000000007A
:101670000000000000001C04200013C1C000000096
:101680000000000000000007B8380000070000005C
:10169000000000001C1CE00713C1C0000000000097
:1016A00000000000000438000000070000000000F7
:1016B00000001DBFF76725D9C70DC1D8F9DCF3B00D
:1016C0007071DB8BBB3BBBE7671E1E000000000098
:1016D0001FFFF7F725FDCF9FC1FDFCD9BBE0F8F94F
:1016E000FFCBBFB9B7F7F7373700000000001DDCAC
:1016F000E77025DDDDDDC1DD9CDBBB81CDDDDDCB34
:10170000BBB9B67777777700000000001DDCE77083
:1017100025DDDDDDC1DC7CDBFB81C1DDDDCBBBB9E3
:10172000B1F7777F7F00000000001DDCE77725DD43
:10173000DDDDDDDDDC73839DCDDDDDCBBBB8E777A3
:1017400077707000000000001DDEF7F749FDCF9FA5
:10175000DDDDDC71FB9CF8F9DDD3BFB8E777773FBF
:101760003F00000000001DCE776749D9C70DDDDCC2
:10177000FC70F39C7071DDD3BB38E3F7771E1E005D
:10178000000000000000070000000001C000000091
:1017900000000000000780000000000000000000C2
:1017A0000000000007000000001F80000000000093
:1017B0000000000700000000000000000000000022
:1017C0000000000000000000000000000000000019
:1017D0000000000000000000000000000000000009
:1017E00000000000000000000000000000000000F9
:1017F00000000000000000000000000000000000E9
:1018000000000000000000000000000000000000D8
:1018100000000000000000000000000000000000C8
:1018200000000000000000000000000000000000B8
:1018300000000000000000000000000000000000A8
:101840000000000000000000000000000000000098
:1018500000000000000000006044000960C00000BB
:10186000000000000000002CC1800001800000008A
:1018700000000000000060CC000960C00000000013
:10188000000000000020C0000001800000000000F7
:101890000000000069FEF19278C70F03479B1CF01F
:1018A0003871AC4CF1B678D18E1C000000000000FD
:1018B00000007CCCF9927CCF9F03E0DB36F07CF912
:1018C000FE4CF9B60CF99B36000000000000000049
:1018D0006CCCD8126CCD9B0363CA3EC060D9B64CA9
:1018E000D9943CD99F3E00000000000000006CEE3F
:1018F000F9A47CCF9F3366CE30C67CF9B68CF99CB8
:101900006CD9983000000000000000006CEEF1A4DB
:1019100078C70F3367CE1EC63871B68CF19C7CD960
:101920008F1E00000000000000000000C00000004A
:101930000300000000000000001C00000000000088
:1019400000000000000000000000C00000001E00B9
:10195000000000000000001800000000000000006F
:101960000000000000000000000000000000000077
:101970000000000000000000000000000000000067
:101980000000000000000000000000000000000057
:101990000000000000000000000000000000000047
:1019A0000000000000000000000000000000000037
:1019B0000000000000000000000000000000000027
:1019C0000000000000000000000000000000000017
:1019D0000000000000000000000000000000000007
:1019E0001800005C200000000000000158400010BA
:1019F000000000000000000000000000000018448B
:101A0000005C200000000000000118000010000031
:101A10000000000000000000000000001FEEFE5F5C
:101A2000A7BC7DFB7F87BFF95F5B7FD3DE00000033
:101A3000000000000000000000001B44D8ADADEC29
:101A40006CEADE0C6F6E5B4A3ED6F60000000000CA
:101A500000000000000000001B44DEADADEF6F6E23
:101A6000E66CEF6E5B4EDED7380000000000000031
:101A70000000000000001B66FEAFA73F6FE47E671A
:101A8000BB6E5F44FED3DE000000000000000000DB
:101A9000000000000000C000006C0000000000001A
:101AA000C000000000000000000000000000000076
:101AB00000000000C0000038000000000000C0006E
:101AC0000000000000000000000000000000000016
:101AD0000000000000000000000000000000000006
:101AE00000000000000000000000000000000000F6
:101AF00000000000000000000000000000000000E6
:101B000000000000000000000000000000000000D5
:101B100000000000000000000000000000000000C5
:101B200000000000000000000000000000000000B5
:101B300000000000000000000000000000000000A5
:101B40000000000000000000000000000000000095
:101B50000000000000000000000000000000000085
:101B60000000000000000000000000000000000075
:101B70000000000000000000000000000000000065
:101B80000000000000000000000000000000000055
:101B90000000000000000000000000000000000045
:101BA0000000000000000000000000000000000035
:101BB0000000000000000000000000000000000025
:101BC0000000000000000000000000000000000015
:101BD0000000000000000000000000000000000005
:101BE00000000000000000000000000000000000F5
:101BF00000000000000000000000000000000000E5
:101C000000000000000000000000000000000000D4
:101C100000000000000000000000000000000000C4
:101C200000000000000000000000000000000000B4
:101C300000000000000000000000000000000000A4
:101C40000000000000000000000000000000000094
:101C5000000FC00FA8788000000000000000000006
:101C60000000000000000000000000000000001064
:101C70002002288480000000000000000000000016
:101C80000000000000000000000000000010200222
:101C90002884800000000000000000000000000018
:101CA0000000000000000000000000102002288456
:101CB00080000000000000000000000000000000A4
:101CC0000000000000000000000FC0022884800017
:101CD0000000000000000000000000000000000004
:101CE00000000000000000000002387880000000C2
:101CF00000000000000000000000000000000000E4
:101D00000000000000000005280080000000000026
:101D100000000000000000000000000000000000C3
:101D20000000003FF00528008000000000000000D7
:101D300000000000000000000000000000000000A3
:101D400000084008A840000000000000000000005B
:101D5000000000000000000000000000000000087B
:101D60004008A84000000000000000000000000043
:101D7000000000000000000000000000000840001B
:101D8000287F80000000000000000000000000002C
:101D90000000000000000000000000000000000043
:101DA0000000000000000000000000000000000033
:101DB0000000000000000000000000000000000023
:101DC0000000000000000000000000000000000013
:101DD000000000000000003FFFFFFFFFFFFFFFFFCC
:101DE000FFFFC00000000000000000000000000035
:101DF00000000000003FFFFFFFFFFFFFFFFFFFFFAE
:101E0000C000000000000000000000000000000012
:101E10000000003FFFFFFFFFFFFFFFFFFFFFC000CD
:101E200000000000000000000000000000000000B2
:101E3000003FFFFFFFFFFFFFFFFFFFFFC0000000AD
:101E40000000000000000000000000000000003F53
:101E5000FFFFFFFFFFFFFFFFFFFFC00000000000CC
:101E6000000000000000000000000000003FFFFF35
:101E7000FFFFFFFFFFFFFFFFC000000000000000AA
:101E800000000000000000000000003FFFFFFFFF17
:101E9000FFFFFFFFFFFFC000000000000000000088
:101EA0000000000000000000003FFFFFFFFFFFFFF9
:101EB000FFFFFFFFC0000000000000000000000066
:101EC000000000000000003FFFFFFFFFFFFFFFFFDB
:101ED000FFFFC00000000000000000000000000044
:101EE00000000000003FFFFFFFFFFFFFFFFFFFFFBD
:101EF000C000000000000000000000000000000022
:101F00000000003FFFFFFFFFFFFFFFFFFFFFC000DC
:101F100000000000000000000000000000000000C1
:101F2000003FFFFFFFFFFFFFFFFFFFFFC0000000BC
:101F30000000000000000000000000000000003F62
:101F4000FFFFFFFFFFFFFFFFFFFFC00000000000DB
:101F5000000000000000000000000000003FFFFF44
:101F6000FFFFFFFFFFFFFFFFC000000000000000B9
:101F700000000000000000000000003FFFFFFFFF26
:101F8000FFFFFFFFFFFFC000000000000000000097
:101F90000000000000000000003FFFFFFFFFFFFF08
:101FA000FFFFFFFFC0000000000000000000000075
:101FB000000000000000003FFFFFFFFFFFFFFFFFEA
:101FC000FFFFC00000000000000000000000000053
:101FD00000000000003FFFFFFFFFFFFFFFFFFFFFCC
:101FE000C000000000000000000000000000000031
:101FF0000000003FFFFFFFFFFFFFFFFFFFFFC000EC
:1020000000000000000000000000000000000000D0
:10201000003FFFFFFFFFFFFFFFFFFFFFC0000000CB
:102020000000000000000000000000000000003F71
:10203000FFFFFFFFFFFFFFFFFFFFC00000000000EA
:10204000000000000000000000000000003FFFFF53
:10205000FFFFFFFFFFFFFFFFC000000000000000C8
:1020600000000000000000000000003FFFFFFFFF35
:10207000FFFFFFFFFFFFC0000000000000000000A6
:102080000000000000000000003FFFFFFFFFFFFF17
:10209000FFFFFFFFC0000000000000000000000084
:1020A000000000000000003FFFFFFFFFFFFFFFFFF9
:1020B000FFFFC00000000000000000000000000062
:1020C00000000000003FFFFFFFFFFFFFFFFFFFFFDB
:1020D000C000000000000000000000000000000040
:1020E0000000003FFFFFFFFFFFFFFFFFFFFFC000FB
:1020F00000000000000000000000000000000000E0
:10210000003FFFFFFFFFFFFFFFFFFFFFC0000000DA
:1021100000000000000000000000000000000000BF
:1021200000000000000000000000000000000000AF
:10213000000000000000000000000000000000009F
:10214000000000000000000000000000000000008F
:10215000000000000000000000000000000000007F
:10216000000000000000000000000000000000006F
:10217000000000000000000000000000000000005F
:10218000000000000000000000000000000000004F
:10219000000000000000000000000000000000003F
:1021A000000000000000000000000000000000002F
:1021B000000000000000000000000000000000001F
:1021C000000000000000000000000000000000000F
:1021D00000000000000000000000000000000000FF
:1021E00000000000000000000000000000000000EF
:1021F00000000000000000000000000000000000DF
:1022000000000000000000000000000000000000CE
:1022100000000000000000000000000000000000BE
:1022200000000000000000000000000000000000AE
:10223000000000000000000000000000000000009E
:10224000000000000000000000000000000000008E
:10225000000000000000000000000000000000007E
:10226000000000000000000000000000000000006E
:10227000000000000000000000000000000000005E
:10228000000000000000000000000000000000004E
:10229000000000000000000000000000000000003E
:1022A0000000000011241FBECFEFD0E1DEBFCDBF84
:1022B00013E0A0E0B1E0E0E3F7E400E00BBF02C010
:1022C00007900D92AC30B107D9F717E0ACE0B3E05E
:1022D00001C01D92AC31B107E1F70E9485150C9445
:1022E00096230C9400001F920F920FB60F920BB61C
:1022F0000F921124AF92BF92CF92DF92EF92FF9292
:102300000F931F932F933F934F935F938F939F93BD
:10231000AF93BF93EF93FF938091EF0084FD1CC0B8
:10232000109211038091F30090E0A0E0B0E0AA24A5
:10233000B82EC92EDA2E8091F20090E0A0E0B0E035
:10234000A82AB92ACA2ADB2A55E0D694C794B7949A
:10235000A7945A95D1F735C081E0809311038091FD
:10236000F30090E0A0E0B0E0D82ECC24BB24AA2457
:102370008091F200E090F1002091F00090E0A0E068
:10238000B0E0DC0199278827A82AB92ACA2ADB2AC3
:1023900030E040E050E0A22AB32AC42AD52AFF2424
:1023A00000E010E0102F0F2DFE2CEE24AE28BF28E9
:1023B000C02AD12A83E0D694C794B794A7948A956B
:1023C000D1F7A0920C03B0920D03C0920E03D092ED
:1023D0000F038091EF008F708093120320E006C0FE
:1023E0008091FA00E45FFC4F87832F5FE22FF0E0DB
:1023F0008091EF0090E08F709070E817F90784F3F8
:1024000081E080931B031092EE008091EF008068C2
:102410008093EF008091EE008F7D8093EE00FF911E
:10242000EF91BF91AF919F918F915F914F913F91AC
:102430002F911F910F91FF90EF90DF90CF90BF9061
:10244000AF900F900BBE0F900FBE0F901F9018957E
:1024500081EF84B90E9A8BE38AB908958AEA809352
:10246000800083E18093810085E39CE09093870066
:102470008093860080E790E09093890080938800A5
:1024800090938B0080938A0090938D0080938C00B2
:102490000895AF92BF92CF92DF92EF92FF920F9387
:1024A0001F938130A9F1813020F0823009F08DC076
:1024B0005EC080E090E00E94061E7B018C0124EB50
:1024C00032EA41E15CE30E94881C5B016C01C801B7
:1024D000B7012EE034E74AE55AE30E94881C2AE956
:1024E00039E949E15FE30E945B1C9B01AC01C60135
:1024F000B5010E945B1C20E030E04AEF52E40E94EC
:10250000881C0E94B21A70938900609388005DC095
:1025100080E090E00E94061E7B018C0124EB32EAF1
:1025200041E15CE30E94881C5B016C01C801B701BA
:102530002EE034E74AE55AE30E94881C2AE939E98B
:1025400049E15FE30E945B1C9B01AC01C601B50140
:102550000E945B1C20E030E04AEF52E40E94881C9D
:102560000E94B21A70938B0060938A002EC080E0A4
:1025700090E00E94061E7B018C0124EB32EA41E1CF
:102580005CE30E94881C5B016C01C801B7012EE06E
:1025900034E74AE55AE30E94881C2AE939E949E10F
:1025A0005FE30E945B1C9B01AC01C601B5010E9468
:1025B0005B1C20E030E04AEF52E40E94881C0E943D
:1025C000B21A70938D0060938C001F910F91FF9051
:1025D000EF90DF90CF90BF90AF9008958FEF87B9C5
:1025E00083B3876083BB9B9A0895E0E9F1E031975C
:1025F000F1F794B3987F94BBA398813011F4A09A1B
:1026000001C0A09860FF02C0A29A01C0A29861FF19
:1026100002C0A39A01C0A398A19A48B9A1980895AD
:102620008FEF87B983B3876083BB9B9A80E063E0B9
:102630004FE30E94F51280E063E040EC0E94F51247
:102640000895EF92FF920F931F93CF93DF9300E0D3
:1026500010E01FC01882C050DE4F18824F2D486B0B
:1026600080E063E00E94F51280E063E04E2D0E945E
:10267000F51281E063E040E00E94F512CF5FD140A7
:10268000F39488E0F81631F70F5F1F4F00341105FF
:1026900069F0E801A3E0CC0FDD1FAA95E1F7C45E65
:1026A000DC4FFF24F0E4EF2EE02AD4CFDF91CF916E
:1026B0001F910F91FF90EF900895CF92DF92EF92CC
:1026C000FF920F931F93CF93DF93EC018038910516
:1026D00008F041C06034710508F03DC080349105B8
:1026E00020F052E0E52EF12C03C031E0E32EF12C76
:1026F0008B0123E0169507952A95E1F767707070B6
:102700009FE3C92ED12CCC22DD22FE0183E0EE0F07
:10271000FF1F8A95E1F7442381F4E00FF11FE45E87
:10272000FC4F81E090E002C0880F991F6A95E2F7A4
:1027300080952081822380830EC0E00FF11FE45E2C
:10274000FC4F81E090E002C0880F991F6A95E2F784
:102750002081282B2083402F486B80E06E2D0E9423
:10276000F5124C2D406480E06E2D0E94F512B3E00E
:10277000CC0FDD1FBA95E1F7C00FD11FC45EDC4F4F
:1027800081E06E2D48810E94F512DF91CF911F915B
:102790000F91FF90EF90DF90CF9008959F92AF92AE
:1027A000BF92CF92DF92EF92FF920F931F93CF933E
:1027B000DF93982EA92E6A017901B02E8B010BC0F0
:1027C000CE01B8014B2D0E945D132196CC15DD057D
:1027D000B8F30F5F1F4F0E151F0528F4892D9A2D92
:1027E0009C01E901F3CFDF91CF911F910F91FF90F1
:1027F000EF90DF90CF90BF90AF909F9008958F9211
:102800009F92AF92BF92CF92DF92EF92FF920F937F
:102810001F93CF93DF93862E8130910529F4A4EA8C
:10282000CA2EA4E0DA2E17C08230910529F4F4E212
:10283000CF2EFCE0DF2E0FC08330910529F4E4EAAF
:10284000CE2EE3E1DE2E07C0049709F048C074E203
:10285000C72E7BE1D72E00E010E0C8016EE170E0EA
:102860000E947420282FC8016EE170E00E9474203D
:10287000962E2F3068F5F601E00FF11FE491E22E5D
:10288000FF2463E0EE0CFF1C6A95E1F7C0E0D0E0A6
:10289000AE2EBB24CE018E0D9F1D882049F0A501D0
:1028A0000C2E02C0440F551F0A94E2F7409507C052
:1028B000A5010C2E02C0440F551F0A94E2F7407880
:1028C000692D70E00E945D132196C830D10511F783
:1028D0000F5F1F4F87E00038180709F0BECFDF9168
:1028E000CF911F910F91FF90EF90DF90CF90BF900D
:1028F000AF909F908F9008952F923F924F925F924A
:102900006F927F928F929F92AF92BF92CF92DF92FF
:10291000EF92FF920F931F93CF93DF931C014B0114
:10292000742E622E842F81548A3108F046C0842F81
:1029300090E081549040E4E0880F991FEA95E1F718
:1029400074E9C72E70E0D72EC80ED91E740164EA50
:10295000462E60E0562E480E591EF6014491810124
:10296000C0E0D0E0A42EBB24662061F0A5010C2EAF
:1029700002C0559547950A94E2F781E090E0482718
:10298000592707C0A5010C2E02C0559547950A94FA
:10299000E2F74170C801B7010E945D1321960F5FF5
:1029A0001F4FC830D10501F70894C11CD11C0894F1
:1029B000E11CF11CC414D50481F6872D80538A30A4
:1029C00008F045C0872D90E0C09754E0880F991F0C
:1029D0005A95E1F744E3C42E42E0D42EC80ED91E26
:1029E000740134E4432E32E0532E480E591EF60192
:1029F00044918101C0E0D0E0A42EBB24662061F0A8
:102A0000A5010C2E02C0559547950A94E2F781E086
:102A100090E04827592707C0A5010C2E02C0559504
:102A200047950A94E2F74170C801B7010E945D130F
:102A300021960F5F1F4FC830D10501F70894C11CC4
:102A4000D11C0894E11CF11CC414D50481F6872D17
:102A500081568A3108F046C0872D90E0815690401B
:102A600024E0880F991F2A95E1F704E0E02E03E0A7
:102A7000F02EE80EF91E11E0412E512CB4E1AB2EE0
:102A8000B3E0BB2EA80EB91EF70144918101C0E04E
:102A9000D0E0C42EDD24662051F0A6010C2E02C029
:102AA000559547950A94E2F74425552507C0A60198
:102AB0000C2E02C0559547950A94E2F74170C80163
:102AC000B4010E945D1321960F5F1F4FC830D105DE
:102AD00011F70894E11CF11C0894811C911CEA1464
:102AE000FB0491F6DF91CF911F910F91FF90EF9032
:102AF000DF90CF90BF90AF909F908F907F906F901E
:102B00005F904F903F902F9008952F923F924F9259
:102B10005F926F927F928F929F92AF92BF92CF926D
:102B2000DF92EF92FF920F931F93DF93CF93CDB776
:102B3000DEB764970FB6F894DEBF0FBECDBF4E016F
:102B40000894811C911C84E1D4011D928A95E9F7B7
:102B500081EF84B90E9A8BE38AB90E9410130E9408
:102B6000211382E090E060E00E94FF130E94211791
:102B700083E00E94711781E043E250E060E070E082
:102B800021E008E09FEFC92E9FEFD92E9FEFE92E9D
:102B90009FE1F92E15E0A12E0E94D61710921B037B
:102BA000109210030E942E1280E06AE570E00E94ED
:102BB000491281E06AE570E00E94491282E06AE50C
:102BC00070E00E944912EDB7FEB73A970FB6F8943D
:102BD000FEBF0FBEEDBF3196ADB7BEB712969C9249
:102BE0008E92119780E091E09383828383E290E05C
:102BF0009583848380910C0390910D03A0910E0323
:102C0000B0910F0386839783A087B1870E94BF206E
:102C1000EDB7FEB73A960FB6F894FEBF0FBEEDBF04
:102C2000C4010E943A1778944E010894811C911CAB
:102C3000B1E22B2EB1E03B2EADE24A2EA1E05A2E9E
:102C4000FDE36F2EF1E07F2E80911B03882309F4B2
:102C5000BBC08DB79EB708970FB6F8949EBF0FBE46
:102C60008DBFEDB7FEB73196ADB7BEB712969C9249
:102C70008E9211973382228280910C0390910D03E2
:102C8000A0910E03B0910F0384839583A683B7832D
:102C90000E94BF20EDB7FEB738960FB6F894FEBF7E
:102CA0000FBEEDBFC4010E943A178DB79EB70897BB
:102CB0000FB6F8949EBF0FBE8DBFEDB7FEB731962D
:102CC000ADB7BEB712969C928E92119753824282F4
:102CD000B0901303AA248091140390E08A299B29C1
:102CE00095838483D0901503CC248091160390E0C3
:102CF0008C299D29978386830E94BF20EDB7FEB75C
:102D000038960FB6F894FEBF0FBEEDBFC4010E9407
:102D10003A178DB79EB708970FB6F8949EBF0FBEAF
:102D20008DBFEDB7FEB73196ADB7BEB712969C9288
:102D30008E92119773826282F0901703EE24809135
:102D4000180390E08E299F2995838483109119039D
:102D500000E080911A0390E0802B912B978386836B
:102D60000E94BF20EDB7FEB738960FB6F894FEBFAD
:102D70000FBEEDBFC4010E943A1781E591E00E94A9
:102D80003A1780910C03805D0E94321786E591E02E
:102D90000E943A1780911103805D0E94321780E6ED
:102DA00091E00E943A1780911203805D0E943217D1
:102DB00087E691E00E943A1710921B03169B02C00F
:102DC000169806C0169A04C080E49CE90197F1F7B2
:102DD00081E06FE671E00E94591936CFAF92BF9241
:102DE000CF92DF92EF92FF920F931F93CF93DF93D7
:102DF0007C016B018A01A22EFA0101900020E9F703
:102E00003197BE2EB41AC0E0D0E00EC0F801EC0F2E
:102E1000FD1FC701B60140812A2D0E947C14219616
:102E200088E090E0E80EF91ECB1580F3DF91CF919A
:102E30001F910F91FF90EF90DF90CF90BF90AF90D8
:102E4000089587E68093CC0088E98093C90086E0E6
:102E50008093CA0008958091C80087FFFCCF8091BD
:102E6000CE000895982F8091C80085FFFCCF9093E5
:102E7000CE000895FC0107C08091C80085FFFCCFFB
:102E800031969093CE0090819923B1F708951092D6
:102E9000C00088E98093C10086E08093C200109250
:102EA000C50087E68093C40008958091C00087FF25
:102EB000FCCF8091C6000895982F8091C00085FFB7
:102EC000FCCF9093C6000895FC0107C08091C0001C
:102ED00085FFFCCF31969093C60090819923B1F77E
:102EE0000895982F8091D80081608093D800933006
:102EF000A1F0943028F4913051F09230E9F40AC0F6
:102F0000953079F0953058F09630B1F40CC01092AD
:102F1000E2000CC09093E20009C086E005C088E0A2
:102F200003C08EE001C082E18093E2008CE08093D8
:102F3000E30087E38093E40090E0892F8295807F0F
:102F40008093ED001092EF001092EE001092F300CB
:102F50001092F2001092F1001092F0001092F7001F
:102F60001092F6001092F5001092F40080E010929A
:102F7000FA008F5F8830D9F79F5F9F30F1F610928B
:102F8000DB001092DF001092DE001092E100109240
:102F9000E00080E28093D8008091D8008260809326
:102FA000D8008091D90082FFFCCF0895AF92CF92D4
:102FB000DF92EF92FF920F931F93182F8295807FDD
:102FC0008093ED001092EE0021FF04C08091EF008D
:102FD000806203C08091EF008F7D8093EF0020FD21
:102FE0002CC0DB01CA0133E0B695A795979587956C
:102FF0003A95D1F78093F300842F8295880F807ED5
:103000008093F200D701C60123E0B695A795979566
:1030100087952A95D1F78093F7008C2D8295880F9C
:10302000807E8093F6001092F4008091EF008F7EF6
:103030008093EF008EE791E055C0DB01CA01F5E116
:10304000B695A79597958795FA95D1F78093F30054
:10305000DB01CA01EDE0B695A79597958795EA95AE
:10306000D1F78093F200DB01CA0155E0B695A79530
:10307000979587955A95D1F78093F100842F880F03
:10308000880F880F8093F000D701C60145E1B695FF
:10309000A795979587954A95D1F78093F700D70123
:1030A000C6013DE0B695A795979587953A95D1F7D6
:1030B0008093F600D701C60125E0B695A7959795B0
:1030C00087952A95D1F78093F5008C2D880F880F6E
:1030D000880F8093F4008091EF0080618093EF006F
:1030E00080E991E00E943A178091EF000F70802BE9
:1030F0008093EF008091F40097E0A9228A298093C1
:10310000F4008091DB00806A8093DB00183050F47B
:1031100081E090E002C0880F991F1A95E2F7809332
:10312000DE000DC0212F30E02850304081E090E0DB
:1031300002C0880F991F2A95E2F78093DF008091E3
:10314000EF0080688093EF0078941F910F91FF90BB
:10315000EF90DF90CF90AF900895AF92CF92DF9233
:10316000EF92FF920F931F931A2D8295807F809389
:10317000ED001092EE00222361F5DB01CA0133E07D
:10318000B695A795979587953A95D1F78093F300D3
:10319000842F8295880F807E8093F200D701C6012C
:1031A00023E0B695A795979587952A95D1F78093B3
:1031B000F7008C2D8295880F807E8093F600109208
:1031C000F4008091EF008F7E8093EF008EE791E016
:1031D00055C0DB01CA01F5E1B695A795979587958E
:1031E000FA95D1F78093F300DB01CA01EDE0B695C3
:1031F000A79597958795EA95D1F78093F200DB0123
:10320000CA0175E0B695A795979587957A95D1F7F8
:103210008093F100842F880F880F880F8093F0002F
:10322000D701C60165E1B695A795979587956A95EB
:10323000D1F78093F700D701C6015DE0B695A79559
:10324000979587955A95D1F78093F600D701C601D7
:1032500045E0B695A795979587954A95D1F78093C0
:10326000F5008C2D880F880F880F8093F4008091D3
:10327000EF0080618093EF0080E991E00E943A17AF
:103280008091EF000F70802B8093EF008091F4000D
:103290001770812B8093F4008091EF0080688093F9
:1032A000EF001F910F91FF90EF90DF90CF90AF90C4
:1032B0000895CF93DF93EB01288139814A815B81A7
:1032C0008295807F8093ED001092EE001092EF00C7
:1032D0008D818823C9F4DA01C901E3E0B695A79589
:1032E00097958795EA95D1F78093F300822F829581
:1032F000880F807E8093F2008091EF008F7E809314
:10330000EF0082EA91E02EC0DA01C90175E1B695BD
:10331000A795979587957A95D1F78093F300DA0171
:10332000C9016DE0B695A795979587956A95D1F7F0
:103330008093F200DA01C90145E0B695A79597950B
:1033400087954A95D1F78093F100822F880F880FD7
:10335000880F8093F0008091EF0080618093EF00F0
:103360008DEA91E00E943A178091EF002E81822B26
:103370008093EF009091F0008C818470892B809372
:10338000F0008091F0008D7F8093F0008091F0003C
:103390008E7F8093F00090E007C0FE01E90FF11DE1
:1033A00087818093FA009F5F9217B8F38091EF00B6
:1033B00080648093EF0020EA36E841E050E080919D
:1033C000EE0086FD06C02150310941095109B8F7C8
:1033D00008C012161306140615061CF488EB91E0BB
:1033E00002C08FEB91E00E943A178091EE008F7B34
:1033F0008093EE0081E0DF91CF910895AF92BF926C
:10340000CF92DF92EF92FF920F931F93CF93DF93B0
:10341000082FEB018295807F8093ED0084ED91E091
:103420000E943A1710E0C801C0960E9432178EED34
:1034300091E00E943A178091EE0085FFFCCF81EE6B
:1034400091E00E943A178091EF0084FD1DC01D821B
:103450008091F30090E0A0E0B0E0AA24B82EC92E3D
:10346000DA2E8091F20090E0A0E0B0E0A82AB92A1C
:10347000CA2ADB2A85E0D694C794B794A7948A9584
:10348000D1F788EE91E036C081E08D838091F30022
:1034900090E0A0E0B0E0D82ECC24BB24AA248091F8
:1034A000F200E090F1002091F00090E0A0E0B0E0A8
:1034B000DC0199278827A82AB92ACA2ADB2A30E002
:1034C00040E050E0A22AB32AC42AD52AFF2400E013
:1034D00010E0102F0F2DFE2CEE24AE28BF28C02A9E
:1034E000D12AF3E0D694C794B794A794FA95D1F76C
:1034F00086EF91E00E943A17A882B982CA82DB82E5
:103500008091F00084708C838091EF008F708E83A7
:1035100020E006C08091FA00EC0FFD1F87832F5F2B
:10352000E22FF0E08091EF0090E08F709070E8174C
:10353000F90784F31092EE008091EF008068809389
:10354000EF008091EE008F7D8093EE0081E0DF91AF
:10355000CF911F910F91FF90EF90DF90CF90BF9090
:10356000AF900895EF92FF920F931F937B018C0110
:1035700020E030E040E05FE40E94821D88238CF070
:10358000C801B70120E030E040E05FE40E942A1C5F
:103590000E94B21D9B01AC01205030404040504879
:1035A00006C0C801B7010E94B21D9B01AC01B90160
:1035B000CA011F910F91FF90EF900895A0E0B0E035
:1035C000E4EEFAE10C948820DC012B01FA019C91D5
:1035D000923008F439C1EB018881823008F433C19C
:1035E000943069F4843009F02FC111969C911197A1
:1035F0008981981709F428C1A4E0B2E025C184307C
:1036000009F421C18230A9F4923009F01DC19A0158
:10361000AD0188E0EA010990AE01E90109929E013D
:103620008150C1F7E201898111969C9189238183A0
:1036300008C1923009F407C112962D903C9013975F
:10364000EB018A819B811496AD90BD90CD90DC906A
:103650001797EC80FD800E811F819101281B390B8B
:10366000B90137FF04C066277727621B730B6032EE
:1036700071050CF061C0121613066CF53701480194
:10368000062E04C096948794779467940A94D2F790
:1036900021E030E040E050E004C0220F331F441F1F
:1036A000551F6A95D2F721503040404050402E219E
:1036B0003F2140235123211531054105510521F0BA
:1036C00021E030E040E050E079018A01E628F72867
:1036D000082919293CC0232BD1F1260E371E3501AC
:1036E0004601062E04C096948794779467940A94B2
:1036F000D2F721E030E040E050E004C0220F331F59
:10370000441F551F6A95D2F7215030404040504029
:103710002A213B214C215D2121153105410551050F
:1037200021F021E030E040E050E059016A01A62894
:10373000B728C828D9280BC0821593052CF01C0186
:10374000AA24BB24650103C0EE24FF24870111963F
:103750009C91D20111968C91981709F445C0992338
:1037600039F0A80197012A193B094C095D0906C0E7
:10377000A60195012E193F09400B510B57FD08C0BA
:1037800011823382228224833583468357831DC06E
:1037900081E081833382228288279927DC01821B82
:1037A000930BA40BB50B84839583A683B7830DC0BD
:1037B000220F331F441F551F2483358346835783AD
:1037C000828193810197938382832481358146810D
:1037D0005781DA01C9010197A109B1098F5F9F4F94
:1037E000AF4FBF4328F30BC0918333822282EA0C90
:1037F000FB1C0C1D1D1DE482F5820683178383E0EC
:103800008083248135814681578157FF1AC0C901C1
:10381000AA2797FDA095BA2F81709070A070B07004
:103820005695479537952795822B932BA42BB52B2F
:1038300084839583A683B783828193810196938342
:103840008283DF0101C0D201CD01CDB7DEB7E2E155
:103850000C94A420A0E2B0E0E0E3FCE10C949420FE
:1038600069837A838B839C832D833E834F83588720
:10387000E9E0EE2EF12CEC0EFD1ECE010196B70113
:103880000E94A31F8E010F5E1F4FCE010596B80147
:103890000E94A31F8A8991E089278A8BC701B801FA
:1038A000AE01475E5F4F0E94DE1A0E94CE1EA096B8
:1038B000E6E00C94B020A0E2B0E0E1E6FCE10C947C
:1038C000942069837A838B839C832D833E834F83EB
:1038D0005887F9E0EF2EF12CEC0EFD1ECE0101967B
:1038E000B7010E94A31F8E010F5E1F4FCE010596E8
:1038F000B8010E94A31FC701B801AE01475E5F4F28
:103900000E94DE1A0E94CE1EA096E6E00C94B02023
:10391000A0E2B0E0EEE8FCE10C94882069837A83B1
:103920008B839C832D833E834F835887CE010196E2
:10393000BE01675F7F4F0E94A31FCE010596BE01A7
:103940006F5E7F4F0E94A31F9985923088F089890E
:103950008230C8F0943019F4823051F404C08430BD
:1039600029F4923081F484E092E0C6C0923049F4A8
:1039700020E09A858A89981321E02A87CE0109964A
:10398000BBC0823049F420E09A858A89981321E0EF
:103990002A8BCE014196B0C02D843E844F84588836
:1039A0006D887E888F88988CEE24FF248701AA2456
:1039B000BB24650140E050E060E070E0E0E0F0E052
:1039C000C10181709070892BE9F0E60CF71C081D8D
:1039D000191D9A01AB012A0D3B1D4C1D5D1D80E098
:1039E00090E0A0E0B0E0E614F7040805190520F423
:1039F00081E090E0A0E0B0E0BA01A901480F591FB2
:103A00006A1F7B1FAA0CBB1CCC1CDD1C97FE08C0C8
:103A100081E090E0A0E0B0E0A82AB92ACA2ADB2A17
:103A20003196E032F10549F0660C771C881C991C30
:103A30005694479437942794C3CFFA85EA892B8903
:103A40003C898B859C85280F391F2E5F3F4F17C0FF
:103A5000CA0181709070892B61F016950795F794D3
:103A6000E79480E090E0A0E0B0E8E82AF92A0A2B89
:103A70001B2B76956795579547952F5F3F4F77FDA1
:103A8000E7CF0CC0440F551F661F771F17FD41601D
:103A9000EE0CFF1C001F111F21503040403090E001
:103AA000590790E0690790E4790760F32B8F3C8F0A
:103AB000DB01CA018F779070A070B07080349105DF
:103AC000A105B10561F447FD0AC0E114F104010547
:103AD000110529F0405C5F4F6F4F7F4F40781A8E81
:103AE000FE1711F081E08A8F4D8F5E8F6F8F78A364
:103AF00083E0898FCE0149960E94CE1EA096E2E116
:103B00000C94A420A8E1B0E0E8E8FDE10C94942036
:103B100069837A838B839C832D833E834F8358876D
:103B200089E0E82EF12CEC0EFD1ECE010196B701C6
:103B30000E94A31F8E010F5E1F4FCE010596B80194
:103B40000E94A31F8985823040F08989823028F045
:103B5000C701B8010E941B2001C08FEF6896E6E004
:103B60000C94B020ACE0B0E0E8EBFDE10C949820C0
:103B700069837A838B839C83CE010196BE016B5F40
:103B80007F4F0E94A31F8D81823061F1823050F1FE
:103B9000843021F48E81882351F12EC02F81388505
:103BA00037FD20C06E812F3131051CF06623F9F0FE
:103BB00023C08EE190E0821B930B29853A854B85CB
:103BC0005C8504C056954795379527958A95D2F719
:103BD0006623B1F050954095309521953F4F4F4F5A
:103BE0005F4F0EC020E030E040E050E009C02FEF12
:103BF0003FEF4FEF5FE704C020E030E040E050E8E7
:103C0000B901CA012C96E2E00C94B420A8E0B0E01F
:103C1000ECE0FEE10C9490207B018C0161157105B4
:103C20008105910519F482E0898360C083E089836E
:103C30008EE1C82ED12CDC82CB82ED82FE820F83F6
:103C40001887C801B7010E947F1EFC013197F7FF5A
:103C50003BC0222733272E1B3F0B57016801022E42
:103C600004C0D694C794B794A7940A94D2F740E0BE
:103C700050E060E070E081E090E0A0E0B0E004C0DF
:103C8000880F991FAA1FBB1F2A95D2F70197A10978
:103C9000B1098E219F21A023B1230097A105B10571
:103CA00021F041E050E060E070E04A295B296C2996
:103CB0007D294D835E836F8378878EE190E08E1B34
:103CC0009F0B9C838B8312C0309781F00E2E04C013
:103CD000EE0CFF1C001F111F0A94D2F7ED82FE822A
:103CE0000F831887CE1ADF0ADC82CB821A82CE01BC
:103CF00001960E94CE1E2896EAE00C94AC20EF922A
:103D0000FF920F931F937B018C0180E0E81680E007
:103D1000F80681E0080780E0180788F48FEFE816BE
:103D2000F1040105110531F028F088E090E0A0E0F1
:103D3000B0E017C080E090E0A0E0B0E012C080E00A
:103D4000E81680E0F80680E0080781E0180728F010
:103D500088E190E0A0E0B0E004C080E190E0A0E065
:103D6000B0E020E230E040E050E0281B390B4A0B85
:103D70005B0B04C016950795F794E7948A95D2F7E4
:103D8000F701E45FFD4F8081281B3109410951098A
:103D9000C9011F910F91FF90EF900895DF92EF926C
:103DA000FF920F931F93FC01E480F5800681178139
:103DB000D1808081823048F480E090E0A0E1B0E0E2
:103DC000E82AF92A0A2B1B2BA5C0843009F49FC0CE
:103DD000823021F4EE24FF24870105C0E114F104B0
:103DE0000105110519F4E0E0F0E096C062817381ED
:103DF0009FEF623879070CF05BC022E83FEF261B8B
:103E0000370B2A3131052CF020E030E040E050E063
:103E10002AC0B801A701022E04C076956795579570
:103E200047950A94D2F781E090E0A0E0B0E004C0AA
:103E3000880F991FAA1FBB1F2A95D2F70197A109C6
:103E4000B1098E219F21A023B1230097A105B105BF
:103E500021F081E090E0A0E0B0E09A01AB01282BD6
:103E6000392B4A2B5B2BDA01C9018F779070A07038
:103E7000B07080349105A105B10539F427FF09C060
:103E8000205C3F4F4F4F5F4F04C0215C3F4F4F4F6F
:103E90005F4FE0E0F0E02030A0E03A07A0E04A0702
:103EA000A0E45A0710F0E1E0F0E079018A0127C0B0
:103EB0006038710564F5FB01E158FF4FD801C70177
:103EC0008F779070A070B07080349105A105B10516
:103ED00039F4E7FE0DC080E490E0A0E0B0E004C05B
:103EE0008FE390E0A0E0B0E0E80EF91E0A1F1B1F70
:103EF00017FF05C016950795F794E794319687E06C
:103F000016950795F794E7948A95D1F705C0EE24A6
:103F1000FF248701EFEFF0E06E2F67956627679526
:103F2000902F9F77D794DD24D7948E2F8695492F95
:103F3000462B582F5D29B701CA011F910F91FF90A1
:103F4000EF90DF900895FC01DB01408151812281D7
:103F5000622F6F7770E0221F2227221F9381892F03
:103F6000880F822B282F30E0991F9927991F1196CF
:103F70009C93119721153105A9F54115510561054E
:103F8000710511F482E037C082E89FEF13969C938D
:103F90008E9312979A01AB0167E0220F331F441FE3
:103FA000551F6A95D1F783E08C930DC0220F331F04
:103FB000441F551F12968D919C911397019713964C
:103FC0009C938E931297203080E0380780E048075A
:103FD00080E4580758F314962D933D934D935C93CA
:103FE000179708952F3F310579F441155105610563
:103FF000710519F484E08C93089564FF03C081E097
:104000008C9312C01C9210C02F57304013963C93D3
:104010002E93129783E08C9387E0440F551F661F01
:10402000771F8A95D1F7706414964D935D936D93C5
:104030007C93179708951F93DC01FB019C919230AC
:1040400008F447C08081823008F443C0943051F4B2
:1040500011961C91843099F58181682F70E0611B65
:1040600071093FC0843021F0923031F48230B9F1CF
:104070008181882389F12DC011961C91119782307E
:10408000F1F081811817D9F412962D913C91139774
:10409000828193818217930794F028173907BCF027
:1040A00014968D919D910D90BC91A02D2481358108
:1040B00046815781281739074A075B0718F41123EF
:1040C00041F00AC082179307A407B50740F41123F3
:1040D00019F061E070E005C06FEF7FEF02C060E0B3
:1040E00070E0CB011F910895AA1BBB1B51E107C0D3
:1040F000AA1FBB1FA617B70710F0A61BB70B881F78
:10410000991F5A95A9F780959095BC01CD01089506
:104110002F923F924F925F926F927F928F929F92D7
:10412000AF92BF92CF92DF92EF92FF920F931F93C5
:10413000CF93DF93CDB7DEB7CA1BDB0B0FB6F89476
:10414000DEBF0FBECDBF09942A88398848885F84B6
:104150006E847D848C849B84AA84B984C884DF8027
:10416000EE80FD800C811B81AA81B981CE0FD11D0B
:104170000FB6F894DEBF0FBECDBFED0108950F93CB
:104180001F93DF93CF93CDB7DEB72E970FB6F8947A
:10419000DEBF0FBECDBF0D891E8986E08C831A83DA
:1041A00009838FEF9FE79E838D839E01275E3F4F9C
:1041B000CE0101966F89788DA9010E94F0202F8190
:1041C0003885020F131FF80110822E960FB6F8944F
:1041D000DEBF0FBECDBFCF91DF911F910F9108952C
:1041E0002F923F924F925F926F927F928F929F9207
:1041F000AF92BF92CF92DF92EF92FF920F931F93F5
:10420000DF93CF93CDB7DEB72B970FB6F894DEBF11
:104210000FBECDBF3C012B015A01FC011782168253
:10422000838181FD03C06FEF7FEFC6C19AE0892EC5
:104230001E010894211C311CF3012381F20123FD8E
:10424000859123FF81912F01882309F4B2C1853222
:1042500039F423FD859123FF81912F01853229F4C3
:1042600090E0B3010E940C23E7CF982FFF24EE24A7
:104270009924FFE1FF15D0F09B3269F09C3228F4BD
:10428000903259F0933291F40EC09D3249F0903340
:1042900069F441E024C052E0F52A84E0F82A28C0FD
:1042A00098E0F92A25C0E0E1FE2A22C0F7FC29C0E7
:1042B000892F80538A3070F4F6FE05C0989C902CAC
:1042C0001124980E15C0E89CE02C1124E80EF0E2B1
:1042D000FF2A0EC09E3229F4F6FC6BC140E4F42A9A
:1042E00007C09C3619F450E8F52A02C0983649F404
:1042F000F20123FD959123FF91912F01992309F05C
:10430000B8CF892F8554833018F08052833038F429
:1043100044E050E0A40EB51E5FE359830FC093360E
:1043200031F0933779F0933509F056C020C0F5018C
:104330008081898342E050E0A40EB51E610101E056
:1043400010E012C0F501C080D180F6FC03C06FEF11
:104350007FEF02C0692D70E042E050E0A40EB51E70
:10436000C6010E9401238C015FE7F52214C0F5010C
:10437000C080D180F6FC03C06FEF7FEF02C0692DD3
:1043800070E042E050E0A40EB51EC6010E94F62285
:104390008C0150E8F52AF3FE07C01AC080E290E0D5
:1043A000B3010E940C23EA948E2D90E008171907A0
:1043B000A8F30EC0F601F7FC8591F7FE81916F011D
:1043C00090E0B3010E940C23E110EA9401501040E8
:1043D0000115110579F7EAC0943611F0993669F59F
:1043E000F7FE08C0F501208131814281538184E0CC
:1043F00090E00AC0F501808191819C01442737FD3E
:104400004095542F82E090E0A80EB91E9FE6F92255
:1044100057FF09C050954095309521953F4F4F4F1C
:104420005F4FE0E8FE2ACA01B901A1012AE030E0AD
:104430000E943823D82ED21840C0953729F41F2D5A
:104440001F7E2AE030E01DC01F2D197F9F3661F0CE
:10445000903720F4983509F0ACC00FC0903739F090
:10446000983709F0A6C004C028E030E00AC0106107
:1044700014FD146020E130E004C014FD166020E15A
:1044800032E017FF08C0F50160817181828193815C
:1044900044E050E008C0F50180819181BC0180E0DA
:1044A00090E042E050E0A40EB51EA1010E94382326
:1044B000D82ED2188FE7F82EF122F6FE0BC05EEF51
:1044C000F522D91438F4F4FE07C0F2FC05C08FEED3
:1044D000F82202C01D2D01C0192DF4FE0DC0FE01F1
:1044E000ED0DF11D8081803319F499EEF92208C099
:1044F0001F5FF2FE05C003C08F2D867809F01F5F95
:104500000F2DF3FC14C0F0FE0FC01E1510F09D2CF3
:104510000BC09D2C9E0C911A1E2D06C080E290E0CF
:10452000B3010E940C231F5F1E15C0F304C01E15AB
:1045300010F4E11A01C0EE2404FF0FC080E390E004
:10454000B3010E940C2302FF1DC001FD03C088E7D8
:1045500090E00EC088E590E00BC0802F867891F047
:1045600001FF02C08BE201C080E2F7FC8DE290E027
:10457000B3010E940C2306C080E390E0B3010E94C7
:104580000C239A94D914C0F3DA94F101ED0DF11DC6
:10459000808190E0B3010E940C23DD20A9F706C0C2
:1045A00080E290E0B3010E940C23EA94EE20C1F770
:1045B00043CEF30166817781CB012B960FB6F89439
:1045C000DEBF0FBECDBFCF91DF911F910F91FF9046
:1045D000EF90DF90CF90BF90AF909F908F907F90A3
:1045E0006F905F904F903F902F900895FC01059041
:1045F000615070400110D8F7809590958E0F9F1FE5
:104600000895FC016150704001900110D8F7809529
:1046100090958E0F9F1F08950F931F93CF93DF9355
:104620008C01EB018B8181FF1BC082FF0DC02E81AD
:104630003F818C819D812817390764F4E881F981D5
:104640000193F983E88306C0E885F985802F0995F1
:10465000892B31F48E819F8101969F838E8302C0C6
:104660000FEF1FEFC801DF91CF911F910F910895B8
:10467000FA01AA27283051F1203181F1E8946F9393
:104680006E7F6E5F7F4F8F4F9F4FAF4FB1E03ED039
:10469000B4E03CD0670F781F891F9A1FA11D680FD7
:1046A000791F8A1F911DA11D6A0F711D811D911D0A
:1046B000A11D20D009F468943F912AE0269F11247F
:1046C0003019305D3193DEF6CF010895462F4770E3
:1046D000405D4193B3E00FD0C9F7F6CF462F4F703E
:1046E000405D4A3318F0495D31FD4052419302D09C
:1046F000A9F7EACFB4E0A695979587957795679542
:10470000BA95C9F700976105710508959B01AC0141
:104710000A2E06945795479537952795BA95C9F768
:10472000620F731F841F951FA01D0895F894FFCF7B
:1047300053746172742046572043616E2052782072
:10474000696428256429205478206964282564290F
:10475000000D547849443D25346C640A000D5531F0
:104760003D2534642C55323D2534640A000D4164E6
:1047700063313D2534642C416463323D2534640A41
:10478000000D49442D002C20666F726D61742D0060
:104790002C20444C432D002C20456E640D0A002033
:1047A00000000000010831323334353637380D52FD
:1047B00078205374616E64617264205365740A00DA
:1047C0000D527820457874656E6465642053657475
:1047D0000A000D7374616E646172640A000D45789D
:1047E00074656E6465640A000D54584F4B0A000DE1
:1047F0005458206572726F72202854696D656F7508
:1048000074290A000D5258204D4F622023000D0AD2
:10481000000D52584F4B0A000D5278205374616EB0
:10482000646172640A000D527820457874656E6484
:1048300065640A00000000000000000000010202A0
:104840000303030304040404040404040505050528
:104850000505050505050505050505050606060604
:1048600006060606060606060606060606060606E8
:1048700006060606060606060606060607070707D4
:1048800007070707070707070707070707070707B8
:1048900007070707070707070707070707070707A8
:1048A0000707070707070707070707070707070798
:1048B0000707070707070707070707070808080884
:1048C0000808080808080808080808080808080868
:1048D0000808080808080808080808080808080858
:1048E0000808080808080808080808080808080848
:1048F0000808080808080808080808080808080838
:104900000808080808080808080808080808080827
:104910000808080808080808080808080808080817
:104920000808080808080808080808080808080807
:0C4930000808080808080808080808081B
:00000001FF
