:100000000C944A000C9461000C9461000C94610003
:100010000C9461000C9461000C9461000C946100DC
:100020000C9461000C9461000C9461000C946100CC
:100030000C9461000C9461000C9461000C946100BC
:100040000C9461000C9461000C9461000C946100AC
:100050000C9461000C9461000C9461000C9461009C
:100060000C9461000C9461000C9461000C9461008C
:100070000C9461000C9461000C9461000C9461007C
:100080000C9461000C9461000C9461000C9461006C
:100090000C94610011241FBECFEFD0E1DEBFCDBFB5
:1000A00013E0A0E0B1E0EEEFF7E000E00BBF02C02C
:1000B00007900D92A235B107D9F70E9474000C94F5
:1000C000FD030C9400008FEF87B988B983BB14BA85
:1000D0008DB98EB90895892B19F48FEF8EB90895D3
:1000E0001EB808951EB8FECF0E94630082E00E94F1
:1000F000DA0087E068E672E040E00E943F0187E0B6
:1001000065E972E040E00E943F01F3CF1092C80021
:1001100088E98093C90086E08093CA001092CD00E0
:1001200083EF8093CC0008958091C80087FFFCCFB7
:100130008091CE000895982F8091C80085FFFCCF54
:100140009093CE000895FC0107C08091C80085FF00
:10015000FCCF31969093CE0090819923B1F708950A
:100160001092C00088E98093C10086E08093C200AD
:100170001092C50083EF8093C40008958091C00061
:1001800087FFFCCF8091C6000895982F8091C00012
:1001900085FFFCCF9093C6000895FC0107C08091B5
:1001A000C00085FFFCCF31969093C60090819923C3
:1001B000B1F70895982F8091D80081608093D8007E
:1001C0009330A1F0943028F4913051F09230E9F45A
:1001D0000AC0953079F0953058F09630B1F40CC0E3
:1001E0001092E2000CC09093E20009C086E005C0C6
:1001F00088E003C08EE001C082E18093E2008CE0E1
:100200008093E30087E38093E40090E0892F829558
:10021000807F8093ED001092EF001092EE0010921C
:10022000F3001092F2001092F1001092F000109280
:10023000F7001092F6001092F5001092F40080E0A2
:100240001092FA008F5F8830D9F79F5F9F30F1F6E8
:100250001092DB001092DF001092DE001092E1009D
:100260001092E00080E28093D8008091D8008260F4
:100270008093D8008091D90082FFFCCF0895CF935E
:10028000DF93EB01642F288139814A815B8182955C
:10029000807F8093ED001092EE001092EF008D8130
:1002A0008823A9F4DA01C901F3E0B695A7959795DB
:1002B0008795FA95D1F78093F300822F8295880F66
:1002C000807E8093F2008091EF008F7E2AC0DA0159
:1002D000C901E5E1B695A79597958795EA95D1F778
:1002E0008093F300DA01C9017DE0B695A795979553
:1002F00087957A95D1F78093F200DA01C90135E04C
:10030000B695A795979587953A95D1F78093F10083
:10031000822F880F880F880F8093F0008091EF0064
:1003200080618093EF008091EF002E81822B80937B
:10033000EF008091F0006470862B8093F000809134
:10034000F0008D7F8093F0008091F0008E7F80938D
:10035000F00090E007C0FE01E90FF11D8781809356
:10036000FA009F5F9217B8F38091EF00806480934A
:10037000EF008091EE0086FD1EB88091EE008F7B2D
:100380008093EE0081E0DF91CF910895AF92CF92FC
:10039000DF92EF92FF920F931F93182F8295807F29
:1003A0008093ED001092EE0021FF04C08091EF00D9
:1003B000806203C08091EF008F7D8093EF0020FD6D
:1003C0002CC0DB01CA0133E0B695A79597958795B8
:1003D0003A95D1F78093F300842F8295880F807E21
:1003E0008093F200D701C60123E0B695A7959795B3
:1003F00087952A95D1F78093F7008C2D8295880FE9
:10040000807E8093F6001092F4008091EF008F7E42
:100410008093EF008EEF92E055C0DB01CA01F5E159
:10042000B695A79597958795FA95D1F78093F300A0
:10043000DB01CA01EDE0B695A79597958795EA95FA
:10044000D1F78093F200DB01CA0155E0B695A7957C
:10045000979587955A95D1F78093F100842F880F4F
:10046000880F880F8093F000D701C60145E1B6954B
:10047000A795979587954A95D1F78093F700D7016F
:10048000C6013DE0B695A795979587953A95D1F722
:100490008093F600D701C60125E0B695A7959795FC
:1004A00087952A95D1F78093F5008C2D880F880FBA
:1004B000880F8093F4008091EF0080618093EF00BB
:1004C00080E193E00E94A3008091EF000F70802BE9
:1004D0008093EF008091F40097E0A9228A2980930D
:1004E000F4008091DB00806A8093DB00183050F4C8
:1004F00081E090E002C0880F991F1A95E2F780937F
:10050000DE000DC0212F30E02850304081E090E027
:1005100002C0880F991F2A95E2F78093DF0080912F
:10052000EF0080688093EF0078941F910F91FF9007
:10053000EF90DF90CF90AF900895AF92CF92DF927F
:10054000EF92FF920F931F931A2D8295807F8093D5
:10055000ED001092EE00222361F5DB01CA0133E0C9
:10056000B695A795979587953A95D1F78093F3001F
:10057000842F8295880F807E8093F200D701C60178
:1005800023E0B695A795979587952A95D1F78093FF
:10059000F7008C2D8295880F807E8093F600109254
:1005A000F4008091EF008F7E8093EF008EEF92E059
:1005B00055C0DB01CA01F5E1B695A79597958795DA
:1005C000FA95D1F78093F300DB01CA01EDE0B6950F
:1005D000A79597958795EA95D1F78093F200DB016F
:1005E000CA0175E0B695A795979587957A95D1F745
:1005F0008093F100842F880F880F880F8093F0007C
:10060000D701C60165E1B695A795979587956A9537
:10061000D1F78093F700D701C6015DE0B695A795A5
:10062000979587955A95D1F78093F600D701C60123
:1006300045E0B695A795979587954A95D1F780930C
:10064000F5008C2D880F880F880F8093F40080911F
:10065000EF0080618093EF0080E193E00E94A300AF
:100660008091EF000F70802B8093EF008091F40059
:100670001770812B8093F4008091EF008068809345
:10068000EF001F910F91FF90EF90DF90CF90AF9010
:100690000895AF92BF92CF92DF92EF92FF920F93A5
:1006A0001F93CF93DF93082FEB018295807F809378
:1006B000ED0082E293E00E94A30010E0C801C09622
:1006C0000E949B008CE293E00E94A3008091EE00C8
:1006D00085FFFCCF8FE293E00E94A3008091EF00A2
:1006E00084FD1DC01D828091F30090E0A0E0B0E089
:1006F000AA24B82EC92EDA2E8091F20090E0A0E054
:10070000B0E0A82AB92ACA2ADB2AE5E0D694C79421
:10071000B794A794EA95D1F786E393E036C081E0D9
:100720008D838091F30090E0A0E0B0E0D82ECC243F
:10073000BB24AA248091F200E090F1002091F00007
:1007400090E0A0E0B0E0DC0199278827A82AB92A28
:10075000CA2ADB2A30E040E050E0A22AB32AC42AA9
:10076000D52AFF2400E010E0102F0F2DFE2CEE24E0
:10077000AE28BF28C02AD12A43E0D694C794B794A4
:10078000A7944A95D1F784E493E00E94A300A8823D
:10079000B982CA82DB828091F00084708C83809160
:1007A000EF008F708E8320E006C08091FA00EC0F7E
:1007B000FD1F87832F5FE22FF0E08091EF0090E034
:1007C0008F709070E817F90784F31092EE00809113
:1007D000EF0080688093EF008091EE008F7D809322
:1007E000EE0081E0DF91CF911F910F91FF90EF908C
:0E07F000DF90CF90BF90AF900895F894FFCFA8
:1007FE003F040000000008114550FF820000004039
:10080E00040000000008FF000000FF0000008F0140
:10081E000000000008FA4C000000000000A00000DC
:10082E00000000086183EC09001F0400A100000015
:10083E00000008807B00002600000060020000001F
:10084E000008202A29B00C8E7500710200000000ED
:10085E00080008000000000000A0020000000008D0
:10086E0000009D1C1506EF01160300000000080194
:10087E002AEC092A15007029030000000008DCBAD2
:10088E0081040620001470030000000008FF3F00E2
:10089E00010000000045050000000008E600008A87
:1008AE0000000000C002000000000814000000005C
:1008BE00000000500300000000080528F47F8300AC
:1008CE00002516030000000008012BEC092B150073
:1008DE00703F040000000008114F60FF0000000090
:1008EE003F040000000008154760FF760000003F3F
:1008FE00040000000008084660FF00000000A00091
:10090E0000000000080000000000FF0100A1000030
:10091E00000000088080000009000000160300009F
:10092E0000000805000000002C00801603000000E7
:10093E00000885000000004E008045050000000004
:10094E0008DE0000850000000071020000000008B3
:10095E00470DC0089857000340040000000008002F
:10096E00000000000000003F0400000000080040EE
:10097E0040FF31240B001603000000000801239CE9
:10098E000C231C007E8002000000000800001500F1
:10099E0000000000A002000000000800004B1CCE6A
:1009AE000D90082903000000000886957D040420A0
:1009BE00FF1445050000000008D0D4008F00000091
:1009CE0000C10200000000080801A300C5CD000907
:1009DE00C4020000000008035A002308807147C4B7
:1009EE0002000000000803580023088071450D52D4
:1009FE0078205374616E64617264205365740A00CA
:100A0E000D527820457874656E6465642053657464
:100A1E000A000D5258204D4F622023000D0A000D82
:100A2E0052584F4B0A000D5278205374616E646118
:100A3E0072640A000D527820457874656E646564A0
:020A4E000A009C
:00000001FF
