:100000000C944A000C9469000C9469000C946900EB
:100010000C9469000C9490060C94BF060C94E906AD
:100020000C9413070C9469000C9469000C946900FB
:100030000C9469000C9469000C9469000C9469009C
:100040000C9479060C9469000C9469000C94690076
:100050000C9469000C9469000C9469000C9469007C
:100060000C9469000C9481000C9469000C94690054
:100070000C9469000C9469000C9469000C9469005C
:100080000C9469000C9469000C9469000C9469004C
:100090000C94690011241FBECFEFD0E1DEBFCDBFAD
:1000A00012E0A0E0B1E0E0E6F2E200E00BBF02C047
:1000B00007900D92A63EB107D9F712E0A6EEB2E086
:1000C00001C01D92AE3EB107E1F70E9466010C949B
:1000D0002E110C94000081EF84B99FEF97B98FE740
:1000E00088B98BE38AB993BB14BA089580E48093EE
:1000F0007C0088EC80937A0010BA8FEF80937E00AA
:1001000008951F920F920FB60F9211248F939F9311
:1001100080917800909179009093ED028093EC02A9
:1001200088EC80937A009F918F910F900FBE0F9073
:100130001F9018958AEA8093800083E18093810064
:1001400085E39CE0909387008093860080E790E0B1
:10015000909389008093880090938B0080938A000D
:1001600090938D0080938C000895AF92BF92CF92B0
:10017000DF92EF92FF920F931F938130A9F18130AC
:1001800020F0823009F08DC05EC080E090E00E94D7
:10019000B20B7B018C0124EB32EA41E15CE30E946B
:1001A000340A5B016C01C801B7012EE034E74AE56F
:1001B0005AE30E94340A2AE939E949E15FE30E94DF
:1001C000070A9B01AC01C601B5010E94070A20E0A5
:1001D00030E04AEF52E40E94340A0E945E087093B5
:1001E0008900609388005DC080E090E00E94B20BBF
:1001F0007B018C0124EB32EA41E15CE30E94340A8A
:100200005B016C01C801B7012EE034E74AE55AE30F
:100210000E94340A2AE939E949E15FE30E94070AAA
:100220009B01AC01C601B5010E94070A20E030E045
:100230004AEF52E40E94340A0E945E0870938B00D9
:1002400060938A002EC080E090E00E94B20B7B0198
:100250008C0124EB32EA41E15CE30E94340A5B0149
:100260006C01C801B7012EE034E74AE55AE30E9469
:10027000340A2AE939E949E15FE30E94070A9B0150
:10028000AC01C601B5010E94070A20E030E04AEF48
:1002900052E40E94340A0E945E0870938D006093BD
:1002A0008C001F910F91FF90EF90DF90CF90BF9047
:1002B000AF900895806480937C0081E090E00E947C
:1002C00049088091EC029091ED0208952F923F929F
:1002D0004F925F926F927F928F929F92AF92BF9256
:1002E000CF92DF92EF92FF920F931F93DF93CF9302
:1002F000CDB7DEB764970FB6F894DEBF0FBECDBFA3
:10030000FE01319684E1DF011D928A95E9F70E9492
:100310006B000E94F10583E00E94B0028FE00E9412
:1003200041060E946B0680E480937C0088EC8093F9
:100330007A0010BA8FEF80937E0010924C010E94D9
:100340009A0080E06DE270E00E94B50081E06AE50D
:1003500070E00E94B50082E067E870E00E94B5009E
:1003600088EC90E00E9449087894EE246E0108948D
:10037000C11CD11C50E0252E51E0352E45E1442E04
:1003800041E0542E3AE2632E31E0732E26E3822EB2
:1003900021E0922E9FE3A92E91E0B92E88B1469AD2
:1003A000E394B8E0EB1611F483E0E82E82E1E89ED6
:1003B000B001112480E00E94B5000E94FA078C0170
:1003C00000D000D000D0EDB7FEB73196ADB7BEB7C4
:1003D0001296DC92CE921197338222828483158307
:1003E0000E94570E8DB79EB706960FB6F8949EBF23
:1003F0000FBE8DBFC6010E940A0682E390E00E94F4
:10040000490810934F01009350010E94BB078C01D3
:1004100000D000D000D0EDB7FEB73196ADB7BEB773
:100420001296DC92CE921197538242828483158376
:100430000E94570E8DB79EB706960FB6F8949EBFD2
:100440000FBE8DBFC6010E940A0682E390E00E94A3
:100450004908109351010093520185E00E945A010E
:10046000192F82E390E00E944908109353010093F2
:10047000540186E00E945A01F82E192F82E390E081
:100480000E944908109355010093560187E068E4E3
:1004900071E00E94980400D000D000D0EDB7FEB704
:1004A0003196ADB7BEB71296DC92CE921197738299
:1004B000628280915301848315820E94570E8DB70A
:1004C0009EB706960FB6F8949EBF0FBE8DBFC601AD
:1004D0000E940A0600D000D000D0EDB7FEB73196DA
:1004E000ADB7BEB71296DC92CE92119793828282FC
:1004F000F48215830E94570E8DB79EB706960FB6ED
:10050000F8949EBF0FBE8DBFC6010E940A0682E30B
:1005100090E00E94490886E00E945A0100D000D075
:1005200000D0EDB7FEB73196ADB7BEB71296DC92EC
:10053000CE921197B382A282958384830E94570E34
:100540008DB79EB706960FB6F8949EBF0FBE8DBFAF
:10055000C6010E940A0684E690E00E9449081ECF68
:10056000982F8091D80081608093D8009330A1F0BB
:10057000943028F4913051F09230E9F40AC095306B
:1005800079F0953058F09630B1F40CC01092E2003A
:100590000CC09093E20009C086E005C088E003C06B
:1005A0008EE001C082E18093E2008CE08093E30062
:1005B00087E38093E40090E0892F8295807F809389
:1005C000ED001092EF001092EE001092F3001092E6
:1005D000F2001092F1001092F0001092F7001092C9
:1005E000F6001092F5001092F40080E01092FA00EC
:1005F0008F5F8830D9F79F5F9F30F1F61092DB0054
:100600001092DF001092DE001092E1001092E000E4
:1006100080E28093D8008091D80082608093D800D7
:100620008091D90082FFFCCF0895AF92CF92DF92E4
:10063000EF92FF920F931F93182F8295807F8093E4
:10064000ED001092EE0021FF04C08091EF00806267
:1006500003C08091EF008F7D8093EF0020FD2CC0C0
:10066000DB01CA0133E0B695A795979587953A9532
:10067000D1F78093F300842F8295880F807E80933A
:10068000F200D701C60123E0B695A7959795879507
:100690002A95D1F78093F7008C2D8295880F807E64
:1006A0008093F6001092F4008091EF008F7E80938B
:1006B000EF0087E591E055C0DB01CA01F5E1B69591
:1006C000A79597958795FA95D1F78093F300DB016D
:1006D000CA01EDE0B695A79597958795EA95D1F76C
:1006E0008093F200DB01CA0155E0B695A795979576
:1006F00087955A95D1F78093F100842F880F880F42
:10070000880F8093F000D701C60145E1B695A79503
:10071000979587954A95D1F78093F700D701C60141
:100720003DE0B695A795979587953A95D1F7809333
:10073000F600D701C60125E0B695A7959795879550
:100740002A95D1F78093F5008C2D880F880F880F9C
:100750008093F4008091EF0080618093EF0089E640
:1007600091E00E940A068091EF000F70802B809329
:10077000EF008091F40097E0A9228A298093F40089
:100780008091DB00806A8093DB00183050F481E0B8
:1007900090E002C0880F991F1A95E2F78093DE005F
:1007A0000DC0212F30E02850304081E090E002C0A1
:1007B000880F991F2A95E2F78093DF008091EF0060
:1007C00080688093EF0078941F910F91FF90EF90D5
:1007D000DF90CF90AF900895AF92CF92DF92EF92DB
:1007E000FF920F931F931A2D8295807F8093ED00C7
:1007F0001092EE00222361F5DB01CA0133E0B695C9
:10080000A795979587953A95D1F78093F300842F14
:100810008295880F807E8093F200D701C60123E085
:10082000B695A795979587952A95D1F78093F70068
:100830008C2D8295880F807E8093F6001092F400B4
:100840008091EF008F7E8093EF0087E591E055C0A7
:10085000DB01CA01F5E1B695A79597958795FA95BD
:10086000D1F78093F300DB01CA01EDE0B695A795BF
:1008700097958795EA95D1F78093F200DB01CA013D
:1008800075E0B695A795979587957A95D1F780935A
:10089000F100842F880F880F880F8093F000D70114
:1008A000C60165E1B695A795979587956A95D1F7A5
:1008B0008093F700D701C6015DE0B695A79597959F
:1008C00087955A95D1F78093F600D701C60145E088
:1008D000B695A795979587954A95D1F78093F5009A
:1008E0008C2D880F880F880F8093F4008091EF0083
:1008F00080618093EF0089E691E00E940A06809172
:10090000EF000F70802B8093EF008091F400177040
:10091000812B8093F4008091EF0080688093EF003A
:100920001F910F91FF90EF90DF90CF90AF900895BF
:10093000CF93DF93EB01288139814A815B818295D6
:10094000807F8093ED001092EE001092EF008D8179
:100950008823C9F4DA01C901E3E0B695A795979514
:100960008795EA95D1F78093F300822F8295880FBF
:10097000807E8093F2008091EF008F7E8093EF0065
:100980008BE791E02EC0DA01C90175E1B695A79514
:10099000979587957A95D1F78093F300DA01C9018D
:1009A0006DE0B695A795979587956A95D1F7809351
:1009B000F200DA01C90145E0B695A79597958795AC
:1009C0004A95D1F78093F100822F880F880F880F06
:1009D0008093F0008091EF0080618093EF0086E8C3
:1009E00091E00E940A068091EF002E81822B809375
:1009F000EF009091F0008C818470892B8093F0003F
:100A00008091F0008D7F8093F0008091F0008E7FC8
:100A10008093F00090E007C0FE01E90FF11D87818F
:100A20008093FA009F5F9217B8F38091EF00806483
:100A30008093EF0020EA36E841E050E08091EE003C
:100A400086FD06C02150310941095109B8F708C097
:100A500012161306140615061CF481E991E002C073
:100A600088E991E00E940A068091EE008F7B8093D6
:100A7000EE0081E0DF91CF910895AF92BF92CF92C7
:100A8000DF92EF92FF920F931F93CF93DF93082F84
:100A9000EB018295807F8093ED008DEA91E00E94CA
:100AA0000A0610E0C801C0960E94020687EB91E09A
:100AB0000E940A068091EE0085FFFCCF8AEB91E050
:100AC0000E940A068091EF0084FD1DC01D82809166
:100AD000F30090E0A0E0B0E0AA24B82EC92EDA2EF0
:100AE0008091F20090E0A0E0B0E0A82AB92ACA2ADA
:100AF000DB2A85E0D694C794B794A7948A95D1F75A
:100B000081EC91E036C081E08D838091F30090E02C
:100B1000A0E0B0E0D82ECC24BB24AA248091F2001F
:100B2000E090F1002091F00090E0A0E0B0E0DC0166
:100B300099278827A82AB92ACA2ADB2A30E040E068
:100B400050E0A22AB32AC42AD52AFF2400E010E0EC
:100B5000102F0F2DFE2CEE24AE28BF28C02AD12A3C
:100B6000F3E0D694C794B794A794FA95D1F78FEC95
:100B700091E00E940A06A882B982CA82DB82809133
:100B8000F00084708C838091EF008F708E8320E062
:100B900006C08091FA00EC0FFD1F87832F5FE22FC4
:100BA000F0E08091EF0090E08F709070E817F90707
:100BB00084F31092EE008091EF0080688093EF0044
:100BC0008091EE008F7D8093EE0081E0DF91CF91E8
:100BD0001F910F91FF90EF90DF90CF90BF90AF905B
:100BE000089587E68093CC0088E98093C90086E069
:100BF0008093CA0008958091C80087FFFCCF809140
:100C0000CE000895982F8091C80085FFFCCF909367
:100C1000CE000895FC0107C08091C80085FFFCCF7D
:100C200031969093CE0090819923B1F70895109258
:100C3000C00088E98093C10086E08093C2001092D2
:100C4000C50087E68093C40008958091C00087FFA7
:100C5000FCCF8091C6000895982F8091C00085FF39
:100C6000FCCF9093C6000895FC0107C08091C0009E
:100C700085FFFCCF31969093C60090819923B1F700
:100C80000895282F80FF08C0EC9A80916A00836045
:100C900080936A0080E18CBB21FF08C0ED9A8091AF
:100CA0006A008C6080936A0080E28CBB22FF08C0DF
:100CB000EE9A80916A00806380936A0080E48CBB26
:100CC00023FF08C0EF9A80916A00806C80936A00CD
:100CD00080E88CBB089584B5886084BD84B582604B
:100CE00084BD16BC83E187BD82E080936E0015BA97
:100CF00008951F920F920FB60F9211248F939F9316
:100D00008091E6029091E70201969093E70280932A
:100D1000E6029F918F910F900FBE0F901F90189534
:100D20001F920F920FB60F9211242F933F938F9320
:100D30009F932091E6023091E70280916A0090E053
:100D400083709070892B49F080916A0010926A003C
:100D50001092E7021092E60209C080916A00836057
:100D600080936A003093EB022093EA029F918F9167
:100D70003F912F910F900FBE0F901F9018951F92CB
:100D80000F920FB60F9211242F933F938F932091C0
:100D9000E6023091E70280916A008C7049F0809100
:100DA0006A0010926A001092E7021092E60209C0EF
:100DB00080916A008C6080936A003093EB022093EC
:100DC000EA028F913F912F910F900FBE0F901F90CD
:100DD00018951F920F920FB60F9211242F933F93E5
:100DE0008F932091E6023091E70280916A00807330
:100DF00049F080916A0010926A001092E702109206
:100E0000E60209C080916A00806380936A00309393
:100E1000EB022093EA028F913F912F910F900FBE2A
:100E20000F901F9018951F920F920FB60F921124DA
:100E30002F933F938F932091E6023091E7028091A8
:100E40006A00807C49F080916A0010926A001092DA
:100E5000E7021092E60209C080916A00806C8093DC
:100E60006A003093EB022093EA028F913F912F9119
:100E70000F900FBE0F901F901895F89477986F9A67
:100E800084EF91E00E943A08779A85E090E00E9412
:100E90003A08779884E690E00E943A086F9884E6D2
:100EA00090E00E943A0878948AE090E00E94490815
:100EB0006091EA027091EB0280E090E00E94B20B38
:100EC0002CEA35EC47E257E30E94340A20E030E098
:100ED00040E05FE30E94340A20E030E44DEA53E44E
:100EE0000E94340A20E030E04AE754E40E94340AC9
:100EF0000E945E08CB010895F89476986E9A84EF6C
:100F000091E00E943A08769A85E090E00E943A08C3
:100F1000769884E690E00E943A086E9884E690E025
:100F20000E943A0878948AE090E00E944908609113
:100F3000EA027091EB0280E090E00E94B20B2CEA92
:100F400035EC47E257E30E94340A20E030E040E00D
:100F50005FE30E94340A20E030E44DEA53E40E944B
:100F6000340A20E030E04AE754E40E94340A0E9448
:100F70005E08CB010895F89475986D9A84EF91E01E
:100F80000E943A08759A85E090E00E943A087598A8
:100F900084E690E00E943A086D9884E690E00E9412
:100FA0003A0878948AE090E00E9449086091EA0249
:100FB0007091EB0280E090E00E94B20B2CEA35ECDD
:100FC00047E257E30E94340A20E030E040E05FE36C
:100FD0000E94340A20E030E44DEA53E40E94340ACF
:100FE00020E030E04AE754E40E94340A0E945E08A0
:100FF000CB010895F89474986C9A84EF91E00E9464
:101000003A08749A85E090E00E943A08749884E661
:1010100090E00E943A086C9884E690E00E943A08BA
:1010200078948AE090E00E9449086091EA02709109
:10103000EB0280E090E00E94B20B2CEA35EC47E234
:1010400057E30E94340A20E030E040E05FE30E9472
:10105000340A20E030E44DEA53E40E94340A20E0F0
:1010600030E04AE754E40E94340A0E945E08CB0153
:101070000895089520E030E008C00F920F900F927D
:101080000F900F920F902F5F3F4F28173907A8F34B
:1010900008950F931F93CF93DF938C01C0E0D0E0AE
:1010A00005C088EE93E00E943A082196C017D10748
:1010B000C0F3DF91CF911F910F910895EF92FF92AE
:1010C0000F931F937B018C0120E030E040E05FE450
:1010D0000E942E0B88238CF0C801B70120E030E07D
:1010E00040E05FE40E94D6090E945E0B9B01AC01C8
:1010F000205030404040504806C0C801B7010E940F
:101100005E0B9B01AC01B901CA011F910F91FF90C9
:10111000EF900895A0E0B0E0E0E9F8E00C94200E34
:10112000DC012B01FA019C91923008F439C1EB01EA
:101130008881823008F433C1943069F4843009F036
:101140002FC111969C9111978981981709F428C194
:10115000ADEDB1E025C1843009F421C18230A9F49C
:10116000923009F01DC19A01AD0188E0EA010990B1
:10117000AE01E90109929E018150C1F7E201898126
:1011800011969C918923818308C1923009F407C18B
:1011900012962D903C901397EB018A819B811496B7
:1011A000AD90BD90CD90DC901797EC80FD800E81C6
:1011B0001F819101281B390BB90137FF04C0662735
:1011C0007727621B730B603271050CF061C0121639
:1011D00013066CF537014801062E04C096948794D7
:1011E000779467940A94D2F721E030E040E050E031
:1011F00004C0220F331F441F551F6A95D2F7215098
:101200003040404050402E213F21402351232115A2
:1012100031054105510521F021E030E040E050E08A
:1012200079018A01E628F728082919293CC0232BCF
:10123000D1F1260E371E35014601062E04C09694C4
:101240008794779467940A94D2F721E030E040E0E5
:1012500050E004C0220F331F441F551F6A95D2F778
:1012600021503040404050402A213B214C215D21FB
:10127000211531054105510521F021E030E040E024
:1012800050E059016A01A628B728C828D9280BC000
:10129000821593052CF01C01AA24BB24650103C010
:1012A000EE24FF24870111969C91D20111968C9116
:1012B000981709F445C0992339F0A80197012A1914
:1012C0003B094C095D0906C0A60195012E193F098D
:1012D000400B510B57FD08C01182338222822483B8
:1012E0003583468357831DC081E081833382228208
:1012F00088279927DC01821B930BA40BB50B8483F1
:101300009583A683B7830DC0220F331F441F551F3B
:101310002483358346835783828193810197938306
:1013200082832481358146815781DA01C901019781
:10133000A109B1098F5F9F4FAF4FBF4328F30BC087
:10134000918333822282EA0CFB1C0C1D1D1DE4825A
:10135000F5820683178383E080832481358146816B
:10136000578157FF1AC0C901AA2797FDA095BA2F28
:1013700081709070A070B0705695479537952795FD
:10138000822B932BA42BB52B84839583A683B783C1
:1013900082819381019693838283DF0101C0D20110
:1013A000CD01CDB7DEB7E2E10C943C0EA0E2B0E097
:1013B000ECEDF9E00C942C0E69837A838B839C838B
:1013C0002D833E834F835887E9E0EE2EF12CEC0EFF
:1013D000FD1ECE010196B7010E944F0D8E010F5EDA
:1013E0001F4FCE010596B8010E944F0D8A8991E0EA
:1013F00089278A8BC701B801AE01475E5F4F0E9403
:101400008A080E947A0CA096E6E00C94480EA0E2AE
:10141000B0E0EDE0FAE00C942C0E69837A838B83C4
:101420009C832D833E834F835887F9E0EF2EF12C68
:10143000EC0EFD1ECE010196B7010E944F0D8E01EC
:101440000F5E1F4FCE010596B8010E944F0DC701D8
:10145000B801AE01475E5F4F0E948A080E947A0C75
:10146000A096E6E00C94480EA0E2B0E0EAE3FAE0D1
:101470000C94200E69837A838B839C832D833E8317
:101480004F835887CE010196BE01675F7F4F0E9450
:101490004F0DCE010596BE016F5E7F4F0E944F0D2E
:1014A0009985923088F089898230C8F0943019F497
:1014B000823051F404C0843029F4923081F48DEDEF
:1014C00091E0C6C0923049F420E09A858A89981349
:1014D00021E02A87CE010996BBC0823049F420E082
:1014E0009A858A89981321E02A8BCE014196B0C053
:1014F0002D843E844F8458886D887E888F88988C90
:10150000EE24FF248701AA24BB24650140E050E0BB
:1015100060E070E0E0E0F0E0C10181709070892B44
:10152000E9F0E60CF71C081D191D9A01AB012A0D04
:101530003B1D4C1D5D1D80E090E0A0E0B0E0E61496
:10154000F7040805190520F481E090E0A0E0B0E080
:10155000BA01A901480F591F6A1F7B1FAA0CBB1CA7
:10156000CC1CDD1C97FE08C081E090E0A0E0B0E05C
:10157000A82AB92ACA2ADB2A3196E032F10549F0B5
:10158000660C771C881C991C5694479437942794B2
:10159000C3CFFA85EA892B893C898B859C85280FE6
:1015A000391F2E5F3F4F17C0CA0181709070892B81
:1015B00061F016950795F794E79480E090E0A0E03D
:1015C000B0E8E82AF92A0A2B1B2B769567955795E0
:1015D00047952F5F3F4F77FDE7CF0CC0440F551F56
:1015E000661F771F17FD4160EE0CFF1C001F111FC7
:1015F00021503040403090E0590790E0690790E476
:10160000790760F32B8F3C8FDB01CA018F779070D5
:10161000A070B07080349105A105B10561F447FD5B
:101620000AC0E114F1040105110529F0405C5F4F87
:101630006F4F7F4F40781A8EFE1711F081E08A8F2E
:101640004D8F5E8F6F8F78A383E0898FCE0149968F
:101650000E947A0CA096E2E10C943C0EA8E1B0E066
:10166000E4E3FBE00C942C0E69837A838B839C83E8
:101670002D833E834F83588789E0E82EF12CEC0EB2
:10168000FD1ECE010196B7010E944F0D8E010F5E27
:101690001F4FCE010596B8010E944F0D89858230FB
:1016A00040F08989823028F0C701B8010E94C70D37
:1016B00001C08FEF6896E6E00C94480EACE0B0E015
:1016C000E4E6FBE00C94300E69837A838B839C8381
:1016D000CE010196BE016B5F7F4F0E944F0D8D8141
:1016E000823061F1823050F1843021F48E81882380
:1016F00051F12EC02F81388537FD20C06E812F31EA
:1017000031051CF06623F9F023C08EE190E0821BC6
:10171000930B29853A854B855C8504C05695479582
:10172000379527958A95D2F76623B1F05095409565
:10173000309521953F4F4F4F5F4F0EC020E030E076
:1017400040E050E009C02FEF3FEF4FEF5FE704C0EC
:1017500020E030E040E050E8B901CA012C96E2E018
:101760000C944C0EA8E0B0E0E8EBFBE00C94280EE3
:101770007B018C01611571058105910519F482E0E9
:10178000898360C083E089838EE1C82ED12CDC82FE
:10179000CB82ED82FE820F831887C801B7010E94B9
:1017A0002B0CFC013197F7FF3BC0222733272E1B60
:1017B0003F0B57016801022E04C0D694C794B7941A
:1017C000A7940A94D2F740E050E060E070E081E036
:1017D00090E0A0E0B0E004C0880F991FAA1FBB1FD3
:1017E0002A95D2F70197A109B1098E219F21A02343
:1017F000B1230097A105B10521F041E050E060E080
:1018000070E04A295B296C297D294D835E836F83B3
:1018100078878EE190E08E1B9F0B9C838B8312C098
:10182000309781F00E2E04C0EE0CFF1C001F111F1C
:101830000A94D2F7ED82FE820F831887CE1ADF0A50
:10184000DC82CB821A82CE0101960E947A0C289605
:10185000EAE00C94440EEF92FF920F931F937B01EA
:101860008C0180E0E81680E0F80681E0080780E05F
:10187000180788F48FEFE816F1040105110531F01F
:1018800028F088E090E0A0E0B0E017C080E090E0B1
:10189000A0E0B0E012C080E0E81680E0F80680E04A
:1018A000080781E0180728F088E190E0A0E0B0E0A8
:1018B00004C080E190E0A0E0B0E020E230E040E051
:1018C00050E0281B390B4A0B5B0B04C0169507959B
:1018D000F794E7948A95D2F7F701EB51FE4F808198
:1018E000281B310941095109C9011F910F91FF902E
:1018F000EF900895DF92EF92FF920F931F93FC01F8
:10190000E480F58006811781D1808081823048F49F
:1019100080E090E0A0E1B0E0E82AF92A0A2B1B2B36
:10192000A5C0843009F49FC0823021F4EE24FF2446
:10193000870105C0E114F1040105110519F4E0E087
:10194000F0E096C0628173819FEF623879070CF0F6
:101950005BC022E83FEF261B370B2A3131052CF004
:1019600020E030E040E050E02AC0B801A701022E9C
:1019700004C076956795579547950A94D2F781E00C
:1019800090E0A0E0B0E004C0880F991FAA1FBB1F21
:101990002A95D2F70197A109B1098E219F21A02391
:1019A000B1230097A105B10521F081E090E0A0E00E
:1019B000B0E09A01AB01282B392B4A2B5B2BDA01C3
:1019C000C9018F779070A070B07080349105A10527
:1019D000B10539F427FF09C0205C3F4F4F4F5F4FDF
:1019E00004C0215C3F4F4F4F5F4FE0E0F0E02030FC
:1019F000A0E03A07A0E04A07A0E45A0710F0E1E0AF
:101A0000F0E079018A0127C06038710564F5FB01B7
:101A1000E158FF4FD801C7018F779070A070B07068
:101A200080349105A105B10539F4E7FE0DC080E4CD
:101A300090E0A0E0B0E004C08FE390E0A0E0B0E070
:101A4000E80EF91E0A1F1B1F17FF05C01695079504
:101A5000F794E794319687E016950795F794E79405
:101A60008A95D1F705C0EE24FF248701EFEFF0E05F
:101A70006E2F679566276795902F9F77D794DD2403
:101A8000D7948E2F8695492F462B582F5D29B70165
:101A9000CA011F910F91FF90EF90DF900895FC0114
:101AA000DB01408151812281622F6F7770E0221F1C
:101AB0002227221F9381892F880F822B282F30E025
:101AC000991F9927991F11969C93119721153105FC
:101AD000A9F5411551056105710511F482E037C082
:101AE00082E89FEF13969C938E9312979A01AB0115
:101AF00067E0220F331F441F551F6A95D1F783E01B
:101B00008C930DC0220F331F441F551F12968D91C9
:101B10009C911397019713969C938E931297203064
:101B200080E0380780E0480780E4580758F31496AF
:101B30002D933D934D935C93179708952F3F310557
:101B400079F4411551056105710519F484E08C9310
:101B5000089564FF03C081E08C9312C01C9210C0F2
:101B60002F57304013963C932E93129783E08C931B
:101B700087E0440F551F661F771F8A95D1F7706461
:101B800014964D935D936D937C93179708951F93CF
:101B9000DC01FB019C91923008F447C080818230C7
:101BA00008F443C0943051F411961C91843099F597
:101BB0008181682F70E0611B71093FC0843021F082
:101BC000923031F48230B9F18181882389F12DC0BE
:101BD00011961C9111978230F1F081811817D9F478
:101BE00012962D913C9113978281938182179307CE
:101BF00094F028173907BCF014968D919D910D90A3
:101C0000BC91A02D24813581468157812817390741
:101C10004A075B0718F4112341F00AC082179307A3
:101C2000A407B50740F4112319F061E070E005C086
:101C30006FEF7FEF02C060E070E0CB011F9108956D
:101C40002F923F924F925F926F927F928F929F92CC
:101C5000AF92BF92CF92DF92EF92FF920F931F93BA
:101C6000CF93DF93CDB7DEB7CA1BDB0B0FB6F8946B
:101C7000DEBF0FBECDBF09942A88398848885F84AB
:101C80006E847D848C849B84AA84B984C884DF801C
:101C9000EE80FD800C811B81AA81B981CE0FD11D00
:101CA0000FB6F894DEBF0FBECDBFED0108950F93C0
:101CB0001F93DF93CF93CDB7DEB72E970FB6F8946F
:101CC000DEBF0FBECDBF0D891E8986E08C831A83CF
:101CD00009838FEF9FE79E838D839E01275E3F4F91
:101CE000CE0101966F89788DA9010E94880E2F81FF
:101CF0003885020F131FF80110822E960FB6F89444
:101D0000DEBF0FBECDBFCF91DF911F910F91089520
:101D10002F923F924F925F926F927F928F929F92FB
:101D2000AF92BF92CF92DF92EF92FF920F931F93E9
:101D3000DF93CF93CDB7DEB72B970FB6F894DEBF06
:101D40000FBECDBF3C012B015A01FC011782168248
:101D5000838181FD03C06FEF7FEFC6C19AE0892EBA
:101D60001E010894211C311CF3012381F20123FD83
:101D7000859123FF81912F01882309F4B2C1853217
:101D800039F423FD859123FF81912F01853229F4B8
:101D900090E0B3010E94A410E7CF982FFF24EE2417
:101DA0009924FFE1FF15D0F09B3269F09C3228F4B2
:101DB000903259F0933291F40EC09D3249F0903335
:101DC00069F441E024C052E0F52A84E0F82A28C0F2
:101DD00098E0F92A25C0E0E1FE2A22C0F7FC29C0DC
:101DE000892F80538A3070F4F6FE05C0989C902CA1
:101DF0001124980E15C0E89CE02C1124E80EF0E2A6
:101E0000FF2A0EC09E3229F4F6FC6BC140E4F42A8E
:101E100007C09C3619F450E8F52A02C0983649F4F8
:101E2000F20123FD959123FF91912F01992309F050
:101E3000B8CF892F8554833018F08052833038F41E
:101E400044E050E0A40EB51E5FE359830FC0933603
:101E500031F0933779F0933509F056C020C0F50181
:101E60008081898342E050E0A40EB51E610101E04B
:101E700010E012C0F501C080D180F6FC03C06FEF06
:101E80007FEF02C0692D70E042E050E0A40EB51E65
:101E9000C6010E9499108C015FE7F52214C0F5017C
:101EA000C080D180F6FC03C06FEF7FEF02C0692DC8
:101EB00070E042E050E0A40EB51EC6010E948E10F4
:101EC0008C0150E8F52AF3FE07C01AC080E290E0CA
:101ED000B3010E94A410EA948E2D90E00817190710
:101EE000A8F30EC0F601F7FC8591F7FE81916F0112
:101EF00090E0B3010E94A410E110EA940150104058
:101F00000115110579F7EAC0943611F0993669F593
:101F1000F7FE08C0F501208131814281538184E0C0
:101F200090E00AC0F501808191819C01442737FD32
:101F30004095542F82E090E0A80EB91E9FE6F9224A
:101F400057FF09C050954095309521953F4F4F4F11
:101F50005F4FE0E8FE2ACA01B901A1012AE030E0A2
:101F60000E94D010D82ED21840C0953729F41F2DCA
:101F70001F7E2AE030E01DC01F2D197F9F3661F0C3
:101F8000903720F4983509F0ACC00FC0903739F085
:101F9000983709F0A6C004C028E030E00AC01061FC
:101FA00014FD146020E130E004C014FD166020E14F
:101FB00032E017FF08C0F501608171818281938151
:101FC00044E050E008C0F50180819181BC0180E0CF
:101FD00090E042E050E0A40EB51EA1010E94D01096
:101FE000D82ED2188FE7F82EF122F6FE0BC05EEF46
:101FF000F522D91438F4F4FE07C0F2FC05C08FEEC8
:10200000F82202C01D2D01C0192DF4FE0DC0FE01E5
:10201000ED0DF11D8081803319F499EEF92208C08D
:102020001F5FF2FE05C003C08F2D867809F01F5F89
:102030000F2DF3FC14C0F0FE0FC01E1510F09D2CE8
:102040000BC09D2C9E0C911A1E2D06C080E290E0C4
:10205000B3010E94A4101F5F1E15C0F304C01E151B
:1020600010F4E11A01C0EE2404FF0FC080E390E0F9
:10207000B3010E94A41002FF1DC001FD03C088E748
:1020800090E00EC088E590E00BC0802F867891F03C
:1020900001FF02C08BE201C080E2F7FC8DE290E01C
:1020A000B3010E94A41006C080E390E0B3010E9437
:1020B000A4109A94D914C0F3DA94F101ED0DF11D36
:1020C000808190E0B3010E94A410DD20A9F706C032
:1020D00080E290E0B3010E94A410EA94EE20C1F7E0
:1020E00043CEF30166817781CB012B960FB6F8942E
:1020F000DEBF0FBECDBFCF91DF911F910F91FF903B
:10210000EF90DF90CF90BF90AF909F908F907F9097
:102110006F905F904F903F902F900895FC01059035
:10212000615070400110D8F7809590958E0F9F1FD9
:102130000895FC016150704001900110D8F780951E
:1021400090958E0F9F1F08950F931F93CF93DF934A
:102150008C01EB018B8181FF1BC082FF0DC02E81A2
:102160003F818C819D812817390764F4E881F981CA
:102170000193F983E88306C0E885F985802F0995E6
:10218000892B31F48E819F8101969F838E8302C0BB
:102190000FEF1FEFC801DF91CF911F910F910895AD
:1021A000FA01AA27283051F1203181F1E8946F9388
:1021B0006E7F6E5F7F4F8F4F9F4FAF4FB1E03ED02E
:1021C000B4E03CD0670F781F891F9A1FA11D680FCC
:1021D000791F8A1F911DA11D6A0F711D811D911DFF
:1021E000A11D20D009F468943F912AE0269F112474
:1021F0003019305D3193DEF6CF010895462F4770D8
:10220000405D4193B3E00FD0C9F7F6CF462F4F7032
:10221000405D4A3318F0495D31FD4052419302D090
:10222000A9F7EACFB4E0A695979587957795679536
:10223000BA95C9F700976105710508959B01AC0136
:102240000A2E06945795479537952795BA95C9F75D
:10225000620F731F841F951FA01D0895F894FFCF70
:102260000D556C7472615F64697374616E6365317E
:102270003D25640A000D556C7472615F6469737466
:10228000616E6365323D25640A000D5478446174C3
:10229000613D25640A000D4972313D25640A000D37
:1022A0004972323D25640A00230000000001083114
:1022B000323334353637380D5278205374616E64BA
:1022C000617264205365740A000D52782045787459
:1022D000656E646564205365740A000D7374616EE5
:1022E000646172640A000D457874656E6465640A01
:1022F000000D54584F4B0A000D5458206572726FF0
:1023000072202854696D656F7574290A000D525842
:10231000204D4F622023000D0A000D52584F4B0AEA
:10232000000D5278205374616E646172640A000D6E
:10233000527820457874656E6465640A0000000078
:102340000000000000000102020303030304040470
:102350000404040404050505050505050505050532
:102360000505050505060606060606060606060612
:1023700006060606060606060606060606060606FD
:1023800006060606060707070707070707070707E2
:1023900007070707070707070707070707070707CD
:1023A00007070707070707070707070707070707BD
:1023B00007070707070707070707070707070707AD
:1023C0000707070707080808080808080808080892
:1023D000080808080808080808080808080808087D
:1023E000080808080808080808080808080808086D
:1023F000080808080808080808080808080808085D
:10240000080808080808080808080808080808084C
:10241000080808080808080808080808080808083C
:10242000080808080808080808080808080808082C
:10243000080808080808080808080808080808081C
:062440000808080808006E
:00000001FF
